:020000040800F2
:100000004857002071920008E18F0008E38F000834
:10001000E58F0008E78F0008E98F00080000000066
:10002000000000000000000000000000E97F000860
:10003000EB8F000800000000917F00086D4600086B
:10004000A5920008A9920008AD920008B19200089C
:10005000B5920008B9920008ED8F0008F38F0008F0
:10006000BD920008C1920008F98F0008FF8F0008B8
:1000700005900008C5920008C9920008CD920008BA
:10008000D1920008D5920008D9920008DD920008AC
:10009000E1920008E5920008E9920008ED9200085C
:1000A0000B900008F1920008F5920008F992000800
:1000B0001190000817900008FD9200081D9000089C
:1000C0002390000801930008059300080993000895
:1000D0000D930008299000082F9000083590000823
:1000E0001193000815930008199300081D93000848
:1000F000219300083B9000082593000829930008ED
:100100002D930008319300083593000839930008B7
:1001100041900008479000084D9000085390000857
:100120003D930008599000085F9000084193000833
:1001300045930008499300084D9300085193000827
:1001400055930008599300085D93000861930008D7
:1001500065930008699300086D9300086590000896
:100160007193000875930008799300087D93000847
:10017000819300088593000889930008000000001F
:100180008D930008B1900008F8B5040025D004F163
:100190003C05697821B900202870204601F074FAE6
:1001A00024216970206802685208520002602068A9
:1001B000016841F4004101602068026822F40042B5
:1001C000026001F0ADFD01466068DFF85C219042FD
:1001D00005D2DFF85831994205D20120F2BDDFF88F
:1001E00050018142F9D32068DFF848314668B1FBFD
:1001F000F3F3B60943EA861646602668376A6068F4
:10020000904206D34FF4967043434FF47A70B3FB99
:10021000F0F35B1CBF0943EA87133362491E23686E
:10022000DE696768974206D27F0000F043F8042930
:1002300013D2042111E0A06820B907EB470700F0B2
:1002400039F805E01920474300F034F841F48041C3
:1002500008050CBF012141F40041DFF8E801064028
:100260000E43DE6122681368E169206A23F0C0034F
:100270000B43034313602268DFF8CC0193682169C4
:100280000340E0680B43034393602168CA68A36995
:100290006069120A034343EA0222CA6020680168C7
:1002A00041F0010101600020686020216970206335
:1002B000A870F2BDB1FBF7F1491CC1F30B01704707
:1002C000006841690A0644BF002101617047308D12
:1002D0007262411E3185708D411E7185704700909C
:1002E00031684A69009289690091009870473068C6
:1002F000016841F480710160704721F48061016000
:100300003068026842F40062026070470090216821
:100310004A69009289690091009870470022294635
:10032000304601F045B80000A186010080841E001F
:1003300000093D0040420F002DE9FC4700F088F81D
:1003400000F08CF85DD100F074F8002859D13878AD
:10035000012856D000F067F801D400F085F9414635
:10036000D6F800E00C9D0B98DDF828C0DEF8008080
:1003700028F40068CEF800804FF0210E87F801E0E5
:100380004FF0400887F802804FF0000EC7F804E0F5
:1003900000F035F900F0DBFE00282BD108E0716A8F
:1003A0000A780261706A411C7162308DFFF791FF1B
:1003B000308DA0B122462946304601F092F8A0B90E
:1003C000706A326801781161706A411C7162308D07
:1003D000411E00F019F8EBD589B20029DFD1224681
:1003E0002946304601F09DF830B17868042801D1E3
:1003F00000F06EFF012005E000F06AFF00F00CF84D
:1004000000E00220BDE8F6873185708D421E7285BE
:100410003068426953077047202078700021B97016
:100420000020387070470121397030680268D107A8
:1004300070470094192301220449304600F0B8BFE8
:10044000000000000030FFFF007CFFFF02001000F2
:100450000646884691469A4601F0CEBC06F13C0716
:1004600004467878202870472DE9FC47FFF7F0FF15
:10047000FFF7F4FF02D1FFF7DCFF002840F0838094
:100480003878012800F07F80FFF7CDFF01D400F01D
:10049000EBF84146D6F800E00C9D0B98DDF828C03B
:1004A000DEF8008028F40068CEF800804FF0220EBD
:1004B00087F801E04FF0400887F802804FF0000E07
:1004C000C7F804E000F09BF800F090FE00284FD140
:1004D000308D18B1012804D100F0AAF800F073F8AB
:1004E00017E0022806D130680168FFF706FF0020F8
:1004F000009001E000210091FFF7F2FE09E02246A2
:10050000294600F04CF8002832D100F03FF8FFF700
:10051000DEFE308D002833D0042824D20128EED00E
:100520000228DFF8588100942B460CD10022414666
:10053000FFF7F6FE00281BD100F081F8716A087001
:10054000706A421CE3E700224146FFF7E9FE0028FB
:100550000ED100F007FD2B4600F041F84146FFF7B1
:10056000DFFE28B9E8E72246294600F018F808B16E
:10057000012009E000F016F8CBD500F04FF8DDE7D8
:10058000FFF74AFF00E00220BDE8F6873068016906
:10059000706A0170716A4A1C7047224649463046AB
:1005A00000F0ECBF30680169706A0170716A308DCB
:1005B0004A1C401E72623085718D4A1E72853168F8
:1005C0004A6953077047009031684A6900928B6905
:1005D000009300980A6842F400720A60704730681D
:1005E0000169706A0170716A308D4A1C411E726225
:1005F00031850022708D411E718500947047C6F8C8
:1006000024C070855346708D30854A46DFF89C00C3
:10061000F0620194009530467047000080B20328D4
:1006200003D1086820F48060086031680869704769
:100630003068016821F480610160002070473068F3
:10064000016841F40071016030680169706A0170ED
:10065000716A308D4A1C411E72623185708D411E57
:100660007185326810697047026842F001020260C9
:1006700070470098401E00900098704704000100E9
:1006800000980A6842F400720A60704700224FF036
:100690000111204600F08CBE416841F48051416058
:1006A0007047016841F48061016070470000FFFFFE
:1006B0002DE9FC41044604F13C052268DFF8DC8B9F
:1006C0005168D4F82CE0A8786B780027102818BF60
:1006D000402840F03C829769D2F814C05FEACC769B
:1006E00005D4BEF52A0F18BFBEF12A4F47D05FEAE6
:1006F000CC7645D58E0543D5E06AB0F52A0F08BF04
:10070000012104D0E06AB0F12A4F01D10821E16251
:10071000A878402809D168690028A8681ABF40F065
:100720000100C0B200F0FE0028E02069B0F5804F63
:1007300016D168782128A8680EBF00F0FE0040F0AE
:100740000100C0B21061606B00281CBFC06B0028A4
:100750002AD1A06B00281CBFC06B00280FD023E05B
:10076000686920B900F0F1FA40F0F00006E068692D
:10077000012804D100F0E9FA40F0F1001061E2E252
:100780005FEA0C7615D58E0513D5A868C0B2106146
:10079000606B00281CBFC06B002805D1A06B00282F
:1007A0001CBFC06B0028EAD02068416841F400619A
:1007B00019E15FEA8C7600D58E0540F19780AB7821
:1007C000E16A276B6878222840F0888068690028F1
:1007D00008BF402B04D1002100F0D7FA009AB2E202
:1007E0006869002804BF2069B0F5404F08D100F0C7
:1007F000D2FA41F4807111606869401C6861A2E21C
:10080000608D28B900F0C7FA41F40071116062E010
:10081000608D012835D1414515D1116821F48061E1
:10082000116021684868020506D5086820F48060D8
:100830000860002100914CE0002200924B69009377
:100840008A6900920DE0082918BF202903D0122FD1
:100850000AD101290DD000F07EFA0021009100F0AC
:10086000B3FAFFF70DFF36E004291CBF0229102957
:1008700002D000F070FA2AE0116841F48061116042
:1008800025E0638D022B0FD104291CBF02291029FA
:1008900005D000F060FA2068FFF733FD08E010682B
:1008A00040F48060106003E0136843F480631360D9
:1008B0002068426813050AD5414518BF012904D0B4
:1008C00008291CBF1029202901D1FFF7E5FE0020CF
:1008D0000090FFF71CFD0021696134E200230093C2
:1008E000516900919269009200992CE27F075ED5D0
:1008F00056683705F9D45FEA0C662DD54F052BD520
:100900005FEA4C7628D46978AB78E76A208D0028B6
:1009100008BF212913D1082F1CBF202F474504D021
:1009200000F023FA0022AA702EE000F07AFA31D10A
:100930000021A9702046BDE8F64101F063BA2129E3
:1009400003D0402B08BF2229CFD1608D00284ED084
:10095000A878402827D0C2E15FEA4C77C5D5890541
:10096000C3D5212B1DD1E16A687821283CD1608D47
:1009700008B100F0B4B908291CBF2029414506D0B0
:1009800000F0F3F90020A8702021697004E000F065
:1009900048FACDD00021A9702046BDE8F64101F00B
:1009A00032BA402820D12046BDE8F641E0E2506846
:1009B000030519D45FEA4C6073D54B0571D55FEA26
:1009C0004C706ED4697822290ED1E36A608D0428B8
:1009D0000BD3106900F0EFF9608D032804D1206873
:1009E000416821F480614160ADE1E16A022955D09E
:1009F000012818BF002851D10020DFF8AC19009061
:100A000019200968B1FBF0F04FF47A77B0FBF7F7E3
:100A100007EB870700972146FFF72BFED8B1146834
:100A2000A005F9D40C46116821F48061116000F032
:100A300079FB00F0E3F96262202200F0C1F96A70EC
:100A4000A878402822D10021A97021632046BDE862
:100A5000F64101F0D9B9686840F02000686050683C
:100A600020F4E06050600A6810694A6A1070486AB1
:100A7000431C4B622023488D421E4A856B70002028
:100A8000A8700846BDE8F64101F0BFB90020082B68
:100A900018BF202BA87053D0122052E000F060F94C
:100AA00051E15FEA4C70FBD58905F9D5E06A618DAB
:100AB000042904D100F054F9216808693CE1618DF2
:100AC00003290CD15168042821F4806118BF022841
:100AD000516001D000F099F900F090F930E1618D9A
:100AE000022940F02881012818BF10280CD00428C2
:100AF00018BF022803D0116841F4007107E01368A1
:100B000043F48063136003E0116821F48061116095
:100B10002268116900F030F92368196900F02CF996
:100B200021684A6822F440724A6020216970AA78DC
:100B3000402A88D00021082818BF2028A970ABD1EE
:100B4000002020632046BDE8F64101F05FB96868E7
:100B500000B997695069860722D58E0520D5686847
:100B600000B197696878002100F02800282811D189
:100B700000F0F6F8780758BF0121380654BFE26844
:100B8000A2690020287002B02046BDE8F04192B270
:100B900001F03DB900F0F9F80021009A2970D2E087
:100BA000C70671D58E056FD56F78506820F4E06068
:100BB000506000210091206841690091FFF754FDC9
:100BC000009800F022F921684868020526D5222FF6
:100BD00018BF2A2F0FF205760FD0606B00F0FAF8DD
:100BE000606B01F0EBFA012818D0606B0665606B52
:100BF00001F0F2F990B1606B0EE0A06B00F0EAF842
:100C0000A06B01F0DBFA012808D0A06B0665A06B91
:100C100001F0E2F910B1A06B016D8847608D88B1D9
:100C2000206841694A0701D500F0C4F8206841698D
:100C30004A0601D500F0BEF8608D18B1686840F032
:100C400004006860686818B12046BDE8F641E7E135
:100C50002A2F05D1206328216970204601F0DAFA95
:100C60006878282808D1C4F82C8000F0D4F82046F1
:100C7000BDE8F64101F0CFBA206B222818BF222F21
:100C800061D100F0C8F84BE0212B18BF292B2DD1E2
:100C900003061DD54B051BD5430719D46978608D14
:100CA000002850D0606A03781361606A421C626257
:100CB00000F07AF808BF292945D100F099F82120E1
:100CC0002063282169702046BDE8F64101F0A4BAEE
:100CD000400738D5890536D5608D002833D0606A45
:100CE00001781161606A411C61622AE043061CD5EB
:100CF0004B051AD5430718D46978608D18B310696D
:100D0000626A1070606A431C636200F04DF808BFAD
:100D10002A2918D100F06CF822202063282169705C
:100D20002046BDE8F64101F075BA40070BD58905AC
:100D300009D5608D38B11069616A0870606A421C1B
:100D4000626200F03DF8BDE8F381A8680004C00DC0
:100D500000F006007047106820F480601060704753
:100D6000506820F4806050607047506820F4E06064
:100D70005060112121637047626A1170616A4B1CD7
:100D80006362618D4A1E62857047009153690093CA
:100D90009169009170470021009153690093916916
:100DA0000091009811687047608D421E6285608DC9
:100DB000002870470069616A0870606A421C6262BC
:100DC000608D411E6185704721684A6900928B6978
:100DD00000937047026853686385608D18B1686836
:100DE00040F004006860486820F400604860704784
:100DF0002068416821F48061416070472068016982
:100E0000606A0170616A4A1C70472068016821F4B9
:100E10008061016070470020206320216970A87004
:100E20007047506820F4E06050602068016841F429
:100E3000007101600020206320216970A87840289B
:100E40007047F8B5054605F13D0029684E694F68C1
:100E500042780024F30505D5FB0503D56FF48073B4
:100E600001244B61B10507D5FB0505D52B686FF44F
:100E7000007144F002045961710560D5FB055ED52F
:100E80006B8D90F800C0D5F830E0202A08BF002B09
:100E90006FF4806148D1BCF1210F18BFBCF1290F5C
:100EA00005D0BCF1280F08BFBEF1210F3CD102785C
:100EB000EB6ADFF8E8C3082B14BF202B282A16D1D1
:100EC000C5F82CC02A68536823F4E06353602A688D
:100ED0005161202229680B6823F480630B60002194
:100EE000296302704170284601F095F927E0212A14
:100EF00017D1C5F82CC02A6320230370002242704A
:100F00002868426822F4E0624260286841612868EB
:100F100000F029F82846FFF7D3F9284601F07CF9BC
:100F20000DE0286841610AE02B68102A18BF402AAA
:100F3000596144F0040402D1286800F0CAF9300570
:100F400007D5F90505D529686FF4006044F0080459
:100F5000486134B1286C04432C642846BDE8F24053
:100F60005EE0F1BD3068016821F480610160704786
:100F700010B500F13D0300F148021C78916871B989
:100F800000685168012905D11368DBB203619068DC
:100F9000801C19E011680904090E016112E09168D2
:100FA000012907D113680068DBB203619168491C0D
:100FB000916010BD916802292DD1222C06D10068C4
:100FC000FFF796F99068401C906010BD418D61B1AB
:100FD000212C0AD1416A03680A781A61416A4A1CC5
:100FE0004262418D4A1E428510BD418D002908BFD5
:100FF000212C14D101684A6822F4E0624A60016839
:10100000FFF73FFB0021016320221A705970BDE8F1
:10101000104000F0F7BEBDE81040FFF751B910BD19
:1010200038B5044604F13D0528786978102914BFC5
:101030004029222804D121680A6822F400620A604B
:1010400000F02801282903D10020206329700BE03B
:10105000226851680A0505D4602803D02020287032
:101060000021697000202063206841680A0523D5AB
:10107000416821F400614160606B0FF2612190F8DA
:101080003520012A09D00165606B00F0A5FF00281A
:1010900025D000F054F8606B0BE0A06B0165A06BED
:1010A00000F09AFFD8B1206800F032F800F047F85D
:1010B000A06B016D884712E02A78602A0AD12021AE
:1010C00029700022226400F023F800F031F801F0CA
:1010D000A4F804E000F01CF8204600F096FE206C16
:1010E00010F00F0F01D000F01DF82878216C4A078E
:1010F0000DD528280BD16948E0620021216320200A
:10110000287069702046BDE8324001F084B831BDD6
:1011100041694A0605D50069616A0870606A421C27
:10112000626270472068416821F4E0614160704765
:10113000206801684908490001602046704720681E
:1011400001684908490001602020287070472DE996
:10115000F84304462068DDF82080099F894601682D
:1011600041F4807115461E46016000974346FFF723
:101170008DFA40B120680168CA0544BF4FF4007081
:101180002064032023E0206809F0FE0101613B4652
:10119000424600F01EF8A0B90090216800F084F8E3
:1011A00000F022F840B9012E0DD02168280A08610C
:1011B0003A4600F018F830B1206C042801D100F054
:1011C0000CF8012003E02068EDB205610020BDE8C5
:1011D000F283764920461FE100002068016841F44F
:1011E000007101607047414620467AE12DE9F84FD1
:1011F00005462868DDF828800B9F0C46FFF751FA5A
:1012000016462868016841F480719946016000F033
:1012100058F800284FF4007A2CD12968DFF88CB1F7
:1012200004F0FE00086100F047F8002832D1009079
:10123000296800F039F800F035F870B9B9F1010FFC
:1012400005D02968300A086100F02AF828B9286812
:10125000F6B2066100F024F830B1286C042819D1E8
:10126000286800F036F815E02868FFF741F800F02C
:1012700028F838B128680168CA0548BFC5F840A0F9
:10128000032008E0286844F00104E4B2046100F09F
:1012900013F800B10120BDE8F28F00000000FFFF4D
:1012A0003A46414628461CE14A6900923A46896915
:1012B00000914146009870473B46424659462846B1
:1012C000AAE00097434600224FF0011128466FE044
:1012D0003068016841F40071016070477CB50021FD
:1012E00000911925816B304801F13D024FF47A7667
:1012F00013780468B4FBF5F5B5FBF6F623204643F6
:101300000096009838B10098401E00900C68206844
:101310008505F6D403E0086C40F020000864486BB3
:1013200008B10024C463886B08B10024C463086852
:10133000046824F48064046000204885486B08B188
:1013400000240465886B08B10024046508680468FB
:101350006408640004601078602809D120231370A9
:10136000002454700C640846BDE8764000F055BF78
:1013700003F02803282B0ED10868036843F001030B
:10138000036028230868046844F480640460002033
:101390000863137003E02020107000245470084686
:1013A000BDE8764000F031BD1800002002000100C9
:1013B0002DE9F8430F46089C0646904699463D0C99
:1013C0003068E9B201290CBF4069806900F06FF80C
:1013D0000CBF0120002040451CD119F1010FEFD0B6
:1013E00000F00AFD001B814502D3B9F1000FE7D1DF
:1013F0003068E9B201290CBF4069806900F057F8F4
:101400000CBF012000204045DAD100F05CF801203B
:10141000BDE8F2830020FBE72DE9F0410F460646C8
:10142000144698463D0CE8B2012837D1306841692E
:10143000394089B2B8B2814237D0306841694A0533
:1014400010D500F039F832685061002106F13C00F7
:101450003163202242708170426842F0040242608F
:10146000017014E014F1010FDDD000F0C5FCA0EB19
:101470000800844201D3002CD5D1E9B2306801299B
:1014800008D1406900F013F8D0D000F01CF801201A
:10149000BDE8F081806900F00AF8F6D13068816912
:1014A000394089B2B8B28142C7D10020F0E7384054
:1014B00080B2B9B288427047016841F4007101609E
:1014C0006FF48060704700203063202106F13C00FB
:1014D000002241708270416841F020014160027039
:1014E000704770B505460C461646286841690806DF
:1014F00015D4284600F06DF878B914F1010FF4D036
:1015000000F07AFC801B844201D3002CEDD12868C6
:1015100041690806E9D400F024F8012070BD0020DC
:1015200070BD70B505460C461646286841694807E7
:1015300015D4284600F04DF878B914F1010FF4D015
:1015400000F05AFC801B844201D3002CEDD12868A6
:1015500041694807E9D400F004F8012070BD00207B
:1015600070BD002105F13C0029632022427081708A
:10157000426842F0200242600170704770B5054633
:101580000C461646286841694A0620D44169CA06B5
:101590000FD56FF01001416100202863202105F173
:1015A0003C0000224170827041684160027001205D
:1015B00070BD00F021FC801B844201D3002CE1D1DE
:1015C000286841694806DDD4FFF7CBFFEFE700202C
:1015D00070BD01684A6953050FD56FF480624A6196
:1015E000002101633C30202242708170426842F049
:1015F000040242600170012070470020704730B43F
:10160000002513E050F8042BD30744BFA9F10103D0
:101610009A18091F042942F8045BFAD213468C0772
:1016200044BF15809B1CC90748BF1D7050F8041BA0
:101630000029E7D130BC704780B50020009000221F
:10164000DFF86C05416841F480414160416801F474
:1016500080410091009900920F21036843F080536C
:101660000360006800F08050009000986FF0010067
:1016700000F0EEFD00220521512000F0E9FDBDE85B
:101680000240512000F002BE10B586B000F0BFF855
:101690002168DFF82005814233D10022DFF81845A8
:1016A00000921222206840F002002060216801F0C0
:1016B00002010091C0210098DFF80005019102921B
:1016C000002103910322042100F09CF800200090E7
:1016D0000022216941F4001121610521206900F4F3
:1016E0000010009000981F2000F0B2FD1F2000F0B5
:1016F000CDFD00220521202000F0AAFD202000F0D1
:10170000C5FD06B010BD80B50068DFF8A414B0F1C7
:10171000804F11D1002000900A6842F001020A6057
:101720000022086800F001000090052100981C20AC
:1017300000F08EFD1C202AE0DFF88424904211D1B5
:10174000002000900A6842F010020A600022086837
:1017500000F01000009005210098362000F078FD80
:10176000362014E0DFF85C24904214D10020009071
:101770000A6842F020020A600022086800F0200097
:10178000009005210098372000F062FD3720BDE869
:10179000024000F07BBD01BD10B586B000F037F807
:1017A0002168DFF8240481422AD10022DFF80804EE
:1017B0000092016941F002010161016901F0020139
:1017C000009100990092C021036843F00103036077
:1017D0000222006800F0010000900098DFF8EC039E
:1017E00001910292012103910022022100F00AF8E6
:1017F000002205211D2000F02BFD1D2000F046FDDC
:1018000006B010BD0591049201A900F055BD044633
:101810001422002101A800F05ABE0068DFF8B013BE
:10182000884200D0704780B50022DFF8A8030092FC
:10183000016841F4803101600521006800F48030C6
:1018400000900098182000F003FDBDE80240182029
:1018500000F01CBD10B586B0FFF7D9FF2168DFF896
:10186000700381421AD10022DFF84C030092022259
:10187000016841F0100101602021006800F01000B3
:1018800000900098DFF8500301910292002103912B
:1018900004910321059101A900F00EFD06B010BDD1
:1018A0002DE9F84386B0044614220021684600F072
:1018B0000EFE2368DFF82423DFF82403DFF8F81294
:1018C00093421BD1002305930A6942F400220A6166
:1018D0000A6902F4002200F04AF94FF440620C68F1
:1018E00044F004040C600223096800F051F900225E
:1018F0000A21342000F0ACFC342033E1DFF8E4228C
:10190000DFF8E472DFF8E45293424FF480684FF05E
:10191000006649D1002305930A6942F480120A61E6
:101920000A6902F4801200F022F90A6842F0040207
:101930000A600A6802F0040200F019F902230A683A
:1019400042F008020A604FF48052096801F0080171
:1019500000F020F9022101910022029204200321CB
:1019600000900391082204926946284600F0A4FCE6
:101970009F4D2F606E600020A860E860C5F8108061
:101980006861A861E86128626862284600F040FA50
:1019900008B101F043F9E563AC6300220A21352068
:1019A00000F056FC3520DDE0DFF848E2DFF8489231
:1019B000864A734537D1002005904B6943F01003E8
:1019C0004B610023486900F01000059005980593CD
:1019D00002230F6847F001070F600868874F00F087
:1019E000010005904FF4C06100F0C5F809F118003E
:1019F00038600021B960F9607961B961F9613962D3
:101A000079627E60C7F81080384600F001FA08B1AC
:101A100001F004F9E763BC6300220521252000F0F2
:101A200017FC25209EE0DFF8D8E173451FD1002088
:101A300005900B6943F400330B610023086900F43F
:101A4000003005900598059302230C6844F00104CA
:101A50000C60086800F0010005900C2100F08BF884
:101A600000220A21262000F0F3FB26207AE0654AB6
:101A7000934242D1002005900A6942F480220A6113
:101A80000022086900F48020059005980592022242
:101A90000B6843F008030B60086800F0080005902D
:101AA0004FF44071059800910192002102910322A8
:101AB0000721049103926946284600F0FDFB524D30
:101AC00007F1180028606E600021A960E960C5F880
:101AD00010806961A961E96129626962284600F0A4
:101AE00097F908B101F09AF8E563AC6300220A2186
:101AF000272000F0ADFB272034E0444A934233D145
:101B0000002305934A6942F020024A614A6902F0C3
:101B1000200200F02CF8C0220E6846F004060E6089
:101B2000022309683A4E00F033F84FF020607060ED
:101B30000021B160F1607161B161F1613162716286
:101B4000C6F80090C6F81080304600F061F908B180
:101B500001F064F8E663B46300220A21472000F034
:101B600077FB472000F092FB07B0BDE8F0830592B9
:101B7000059A059370470598009101930021029101
:101B800003230721049103936946104600F094BB98
:101B900001F004010591059900920193002202923F
:101BA0000323082203930492694600F085BB0000DA
:101BB00040380240005400403038024000040240E7
:101BC00000100040001400400004004000000240EB
:101BD000004001404438024000100240004C0040E8
:101BE000000802400050004010600240000C02401B
:101BF000245000200010014028640240845000203E
:101C00000044004000480040E4500020001401401F
:101C1000445100202DE9F04104000F4654D0574EA6
:101C2000306800F00700B84202D200F073F84BD1E0
:101C30002068534D810712D5400703D5A96841F4A8
:101C4000E051A9602078010703D5A86840F46040FE
:101C5000A860A968A06821F0F0010143A96021787B
:101C6000C80729D56068012802D129688A0305E0E0
:101C7000022818BF032803D129688A0103D423E06E
:101C800029688A0720D5A968890840EA8100A860E8
:101C900000F0B2F88046A868616800F00C00B0EB74
:101CA000810F09D000F0A8F8A0EB080041F28931BB
:101CB0008842F0D303202BE0306800F00700874211
:101CC00004D200F027F801D0012021E0207841075C
:101CD00005D5AA68E06822F4E0520243AA602178A0
:101CE000080706D5A968206921F4604141EAC001CE
:101CF000A96000F051F8AA682249234BC2F30312ED
:101D0000895CC84018602148006800F089FF002005
:101D1000BDE8F0813770316801F00701B9427047C2
:101D200019481B4A006813681A49C3F3822206E067
:101D30001548174A006813681649C3F34232895C94
:101D4000C840704710B50F220260114A136803F0B3
:101D500003034360146804F0F0048460136803F420
:101D6000E053C3601268D20802F4E05202610348F3
:101D7000026802F007020A6010BD0000003C024049
:101D800000380240F49100081800002014000020E0
:101D9000083802409C92000830B5144C606800F08E
:101DA0000C00042802D0082802D01DE0104830BDE5
:101DB000226820680023410202F03F0204D5256812
:101DC0000B49C5F3881003E020680A49C0F3881066
:101DD000A1FB000100F074FF2168C1F30141491C1F
:101DE0004900B0FBF1F030BD024830BD043802407C
:101DF00040787D010024F40001484068704700BF2E
:101E00000C0000207047704770477047704770475C
:101E100070B50446FFF7F0FF06460CB9012070BD0F
:101E200004F13405022068700021297020680268DE
:101E300052085200026022681068C1070AD5FFF7F5
:101E4000DBFF801B0628F6D320202862032169705F
:101E5000032070BD1368DFF82C0361680340A0689D
:101E60000B43E168034320690B4361690343A069A5
:101E70000B43E1690343206A0B43616A034304296E
:101E800003D1E16A206B01430B43136023685A6955
:101E9000606AD208042840EAC2020AD1A66AE16A4E
:101EA000324331B1A06988B9002E18BF022E1FD06D
:101EB00016D35A61204600F095F9A96A3F228A405C
:101EC0008260002028620121697070BDB0F5005F5A
:101ED0000AD1032EEDD8DFE806F00D0B0D03E8E77D
:101EE000B1F1C07FE5D105E0022E03D9F61EE0D1A5
:101EF000C801DED5402129620120687070BDF8B5A7
:101F0000044604F1340600253078776A012801D1AF
:101F10000220F2BD01203070707801281CD102200F
:101F200070703562204600F04CF9B06A3F2101FA2A
:101F300000F0B8602068016841F016010160F068A7
:101F400020B12068016841F0080101602068016843
:101F500041F00101016001E0357002252846F2BD23
:101F6000F8B5044604F134056E6AFFF745FF0746ED
:101F70006878022805D0802129620020287001207D
:101F8000F2BD2068016821F01601016000F003F93C
:101F9000E868002804BF6869002801D000F007F94C
:101FA00000F0FFF820680168CA070CD5FFF724FF8E
:101FB000C01B0628F6D32020286203216970002068
:101FC00028700320F2BDA86A3F218140B160002043
:101FD000012169702870F2BD90F83510022903D0F4
:101FE0008022426501207047052180F83510006885
:101FF0000268520852000260002070472DE9FC413F
:10200000044604F1340600205F4900904FF4165056
:10201000776A0A683D68B2FBF0F8B06A082100F000
:10202000B6F80ED02068026853070AD5026822F07D
:1020300004020260B06A8140B960316A41F0010176
:102040003162B06A25FA00F1CA070BD521684A69E6
:10205000110607D5012202FA00F0B860306A40F09C
:1020600002003062042100F091F808D021680A686B
:10207000930704D5B860306A40F004003062102144
:1020800000F084F81BD021680A68130717D5B860E0
:10209000206801684A0307D5006801030BD5716900
:1020A00069B1204688470AE00168CA0503D401687F
:1020B00021F008010160F16809B120468847B06A43
:1020C000202100F064F83FD021680A68D3063BD590
:1020D000B8602068717805291CD1026822F01602C8
:1020E000026000F058F8F068002804BF706900280A
:1020F00001D000F05CF83F22B06A8240BA60012152
:1021000071700020F1693070002939D02046BDE897
:10211000FC41084701684A0307D5006801030FD452
:10212000316989B1204688470EE00168CA0507D4A5
:10213000016821F0100101600120707000213170F0
:10214000B16809B120468847306AC8B1306AC10712
:1021500010D50520707000F024F80098401C8045D0
:10216000009003D320680168CA07F6D4012070707C
:1021700000213170B16919B12046BDE8FC41084722
:10218000BDE8F3813F8010F018000020B06A01FA2A
:1021900000F0054270472068416921F080014161EB
:1021A000704720680168490849000160704720684D
:1021B000016821F0080101607047000090F83500C7
:1021C000704730B50468256825F480252560636074
:1021D0008068402802D1A260E16030BDA160E26069
:1021E00030BD000030B5016808A401F0FF02103ACC
:1021F0001823B2FBF3F2890A8902A55CC565042A9B
:1022000028BF091D8165084630BD00000006101674
:1022100000061016704770477047704709010200AA
:1022200002D42048815470471F4B02F00F021A4419
:1022300002F8041C70471D4B19684FF6FF0200029C
:10224000114000F4E06008431949084318607047E2
:1022500070B5164B1C68C4F302230124C3F10705B3
:10226000052D2EBF0F2504FA05F56D1E1E1D072E28
:1022700034BF0023DB1E2940994004FA03F3BDE874
:1022800070405B1E1A401143C8E70000010007D4EC
:10229000012200F01F01074B8A40400943F820202B
:1022A0007047000000E400E018ED00E00CED00E0F5
:1022B0000000FA0500E100E02DE9F84F0D46002688
:1022C0007649774A0F23044601202F68B04000EA80
:1022D0000708804540F0CA804FEA460C032707FAFA
:1022E0000CF76FEA070E6F6807F00309B9F1010FE9
:1022F0001CBF07F00307022F12D1A768D5F80C9076
:102300000EEA070709FA0CF949EA0707A7606768A8
:1023100027EA00006F68C7F30017B74038436060D2
:10232000B0002F7907F00307032F21D0E768D5F815
:1023300008900EEA070709FA0CF949EA0707E7606F
:102340002F7907F00307022F12D1F70804EB870754
:1023500000F01C09D7F820A003FA09FB2AEA0B0AAF
:10236000D5F810B00BFA09F949EA0A09C7F8209024
:1023700027680EEA070E2F7907F0030707FA0CF714
:1023800047EA0E0727606F6817F4403F6ED00027BA
:1023900000974FEA960C176847F48047176000F0E3
:1023A0000C00176807F48047009703FA00FE009FAF
:1023B0003C4F57F82C7027EA0E0E3B4FBC4208BF2B
:1023C000002722D0394FBC4208BF01271DD0384F0B
:1023D000BC4208BF022718D0364FBC4208BF0327B3
:1023E00013D0354FBC4208BF04270ED0334FBC4238
:1023F00008BF052709D0324FBC4208BF062704D0CA
:10240000304FBC420CBF0727082707FA00F0254FC2
:1024100040EA0E0047F82C006FEA08008F6800EAD7
:10242000070C6F68FF0248BF48EA0C0CC1F808C0EF
:10243000CF6800EA070C6F68BF0248BF48EA0C0C7F
:10244000C1F80CC04F6800EA070C6F68BF0348BFB3
:1024500048EA0C0CC1F804C00F6800EA070C686871
:10246000C00348BF48EA0C0CC1F800C0761C0F2E10
:102470007FF62AAFBDE8F18F0069084018BF012040
:10248000C0B2704702B90904816170470E4A1368EF
:1024900003421CBF106000F019B87047003C0140B7
:1024A0004438024008380140000002400004024065
:1024B00000080240000C02400010024000140240DC
:1024C00000180240001C0240143C0140704710B547
:1024D000044610460A460146204600F079FC204694
:1024E00010BDB1F5807F02D34FF0FF30704701700F
:1024F000012070470078401E8041C043C00F7047E4
:1025000010B50446DFF8A0162068884208BF00F026
:10251000CFFC2068DFF89416884208BF00F0B9FCB1
:102520002068DFF88C16884203D1BDE8104000F027
:10253000EBBC10BD2DE9F04F8BB000F0F9FC00F0C2
:102540006FFA1421684600F00DFD0020DFF8645694
:10255000DFF86446DFF864660590296841F01001F1
:1025600029600021286800F0100000F02CFA42F0E9
:1025700004022A60286800F0040000F024FA42F007
:1025800080022A60286800F0800000F01CFA42F007
:1025900001022A60286800F0010000F014FA42F0FD
:1025A00002022A60286800F0020005900598059153
:1025B00020212A6842F008022A600022286800F0E0
:1025C0000800059005982046FFF75CFF00F0E0F951
:1025D00013204FF4041100900191012202926946E8
:1025E0002046FFF769FE202100F0DDF92046FFF7C5
:1025F00063FE0021019101224FF480540292009465
:1026000069463046FFF758FE082100F0CCF9304605
:10261000FFF752FE002205210620FFF719FE0620D3
:10262000FFF734FE002205210720FFF711FE0720E7
:10263000FFF72CFE002205210A20FFF709FE0A20E1
:10264000FFF724FE00200090296841F40011296062
:102650000021286800F400100090009800910521E6
:102660002A6842F480022A6000222868DFF8505568
:1026700000F48000009000980B20FFF7E9FD0B208C
:10268000FFF704FE002205210C20FFF7E1FD0C20DE
:10269000FFF7FCFD002205213920FFF7D9FD392085
:1026A000FFF7F4FD002205213A20FFF7D1FD3A2083
:1026B000FFF7ECFDDFF80C15DFF80C05696028600A
:1026C00000224FF48041AA60EA6029616A61AA6130
:1026D000EA612A622846FDF757FD08B100F09EFA2C
:1026E00000F05BF905F51376DFF8E014F064B164EF
:1026F00080203066326540F2E737776505F5257052
:1027000000F034FC08B100F089FA00210091019139
:102710006946DFF8BC84404601F08CF808B100F04F
:102720007DFA00F03AF905F53779DFF8A814C9F811
:102730000400C9F800108020C9F81800C9F8082062
:10274000C9F80C70484600F011FC08B100F066FAB8
:102750000021009101914846694601F06BF808B1EB
:1027600000F05CFADFF8700468650C210020E86571
:1027700028666866E86628674FF4E13BA966C5F8F5
:1027800058B005F1540001F09BF808B100F046FA8A
:1027900005F19C0ADFF8140400F02DF908B100F0EF
:1027A0003DFADFF8380400F013F905F1E40001F018
:1027B00087F808B100F032FA05F5967ADFF82004C0
:1027C00000F019F908B100F029FADFF8DC0300F095
:1027D000FFF805F5BA7001F073F808B100F01EFAC1
:1027E00005F5DE7ADFF8C80300F005F908B100F05E
:1027F00015FA242102A800F0B5FB00210022CDE942
:1028000000127260B26032610320DFF8D8133160C9
:1028100002904FF6FF71F16001228021B1610492B4
:102820000021039105910691079109910A9108925F
:1028300002A9304600F091FC08B100F0EFF900F079
:10284000BBF808B100F0EAF902A800210022002339
:10285000002680E84E00A720CAF84C00CDE90012FF
:10286000C720CAF854004FF080418020CAF86000A9
:10287000CAF84810CAF85020CAF8582005F5017661
:10288000304600F073FB08B100F0C8F9029402A9C9
:10289000304600F013FE08B100F0C0F900F08CF8EB
:1028A00008B100F0BBF91C21684600F05BFBCE4884
:1028B000C9F8480040F61F510020C9F85000C9F877
:1028C0005800C9F86000C9F84C1005F54974C9F8FA
:1028D0005470204600F0A8FB08B100F09FF9602179
:1028E000009100220192029204926946204600F073
:1028F0007DFD08B100F092F92046FEF7ABFF40469F
:1029000000F041FB484600F03EFB304600F03BFB48
:102910000021204600F095FBD9F84810B34C322036
:10292000486301F08BFC204601F007FD01F08FFDAC
:10293000204601F0F5FD012001F000FE012001F02C
:1029400021FE012001F02CFE022001F0F7FD022003
:1029500001F018FE022001F023FE4FF47A7001F01E
:1029600071FE01F090FE05F55B74A14D0FF2511060
:102970002A46002101F0B1FE206005F12402002169
:102980000FF2751001F0A9FE606001F08BFEFEE70A
:10299000002208213046FFF775BD00210022CDE955
:1029A0000012A7207047009101220192002102919C
:1029B000032203926946704700210091019130463D
:1029C000694600F037BF0590059805912A68704761
:1029D000CAF8480000210C20CAF85C00CAF8501060
:1029E000CAF85410CAF85810CAF86010CAF864102F
:1029F000CAF84CB07047CAF8000000210C20CAF891
:102A00001400CAF80810CAF80C10CAF81010CAF856
:102A10001810CAF81C10CAF804B0504600F050BF95
:102A200080B592B0302106A800F09CFA142101A8CC
:102A300000F098FA002000906E48016841F0805143
:102A400001600021006800F08050009000986A4802
:102A500000910221026842F4804202600122006873
:102A600000F48040009000980691099210210A918C
:102A7000022200210C920D910822A8210E920F91A2
:102A8000022204211092119106A801F08FFE08B1D4
:102A900072B6FEE702210291002203920F204FF44A
:102AA000A051019004914FF480520592052101A894
:102AB000FFF7B0F808B172B6FEE713B000BD000032
:102AC00010B500F0B3F900F01DFA02F009F802F0B9
:102AD0003CF802F0B5F8494CA078012808BF02F094
:102AE000D6F8607802F057FA02F0DCF902F0FEF94D
:102AF000012001F03EFEEFE710B5414C4FF480514C
:102B00002E48FFF7B9FC18B12078012804D101E064
:102B10000121217002F080FA012001F02AFEEDE788
:102B2000F8B504462068B0F1804F29D1354D364FB5
:102B300028683968814235D01F4E07D401222021F0
:102B40003046FFF79FFC2A68521C2A6039682868C3
:102B5000091A07D5002220213046FFF793FC286888
:102B6000401E28602868154E00F052F802D101225C
:102B7000FFF70FFF286800F04BF801D0FFF708FFC0
:102B800020681249884204D101F0E3FF1B49A1F8F3
:102B9000420020681D49884203D1BDE8F14002F09F
:102BA000C7BBF1BD2960F1BD0048004000500040A6
:102BB000001401403038024000000240000402408E
:102BC000C8450020801A0600005400400010004054
:102BD0005C48002000140040004C00400010014000
:102BE000004400400004004000400140AC4600208A
:102BF0002C910008403802400070004040490020FD
:102C0000405300202000002024000020002000402D
:102C100000EBD07121F00101401A704772B6FEE757
:102C200078B587B00446002000902048016841F440
:102C30008071016001A9006800F48070009002A812
:102C4000009AFFF77FF8059810B9FFF769F802E0DE
:102C5000FFF766F84000164D1649174B2960B0FB88
:102C6000F3F0401E40F2E73268600021EA6029611B
:102C7000A960A961284600F079F9060012D128461A
:102C800000F081F906000DD12D20FFF7FFFA102C7E
:102C900007D2002221462D20FFF7DAFA0748046008
:102CA00000E00126304608B070BD00004038024008
:102CB000A45100200020004040420F0014000020DA
:102CC000D3BBD9B1B2F5803F5BD2022A1ED98C4664
:102CD000B1FBF2F102FB11C31B0443EA1043B3FB47
:102CE000F2FC02FB1C3380B240EA0343B3FBF2F078
:102CF00002FB103240EA0C4000237047022A05D93B
:102D00008446B0FBF2F002FB10C270474AB105D115
:102D100000F0010249085FEA3000704700220023FA
:102D2000704702F00DBB0B0002000021002070472D
:102D3000F7D3002200237047904271EB030CF2D3CB
:102D400070B5B1FA81F4B3FA83F52C1BA340C4F13A
:102D5000200532FA05F63343A2405FF00046E64014
:102D600002E05B085FEA3202841A71EB030524BFBC
:102D7000204629467641F4D302000B0030000021A2
:102D800070BD70B5B1FA81F4B2FA82F5C4F12004D5
:102D90006419B4F12006DAD3B2405FF00044F44085
:102DA000002502E052085FEA3303C61A71EB020EF7
:102DB00024BF3046714664416D41F3D302000B00DD
:102DC0002000290070BD0268531C03601170704719
:102DD0004018491C1CBFB1F1010100F8012DF9D1C7
:102DE00070472E0010B5017800220023442905D138
:102DF000447A817A0A2C04D00A2911D04FF0FF308E
:102E000010BD44290CD1042102F09CFAF6E7A1F18F
:102E100030040A2C03D20A2404FB0212303A5B1C51
:102E2000C15C0029F3D110B210BD00007FB5684627
:102E300030A1284C284D294E0F2202F087FA68460F
:102E400002F090FA82B264236946204600F075FDD4
:102E5000684602F087FA82B264236946284600F089
:102E60006CFD14223146204600F03AFE1C4800F06A
:102E70000AF8142206F11401284600F031FE194820
:102E800000F001F87FBD0068016821F008010160D1
:102E9000704710B5114C0F481422214600F020FE57
:102EA0000F4900F021F82046FFF79CFF208510BD58
:102EB00010B50A4C0848142204F1140100F010FE69
:102EC000084900F011F804F11400FFF78BFF60854A
:102ED00010BD0000644600203C47002068520020DE
:102EE00024500020E45000200868026822F0080204
:102EF00002607047694641434D3A20320A000000A3
:102F00000000000080B500E080B5092205490648B0
:102F100000F0E6FD05490868026822F00802026038
:102F200001BD0000185300208447002044510020B8
:102F300080B50B48016841F400710160026842F4F9
:102F400080620260016841F4807101600320FFF734
:102F500072F90F20FFF764FEFEF76EFB002002BD42
:102F6000003C0240002202F00BBA430038B50400D6
:102F700001D1012032BD00F0E7F818B900F0FCFAE9
:102F8000FEF7C1FB3DE090F83D10012901D0012082
:102F90007047022180F83D100168CA6842F00102C2
:102FA000CA600068DFF88411884218BFB0F1804F12
:102FB00017D0DFF87C1188421CBFDFF878219042DF
:102FC0000FD0DFF8741188421CBFDFF870219042E7
:102FD00007D0DFF86C1188421CBFDFF868219042EF
:102FE00009D1816801F00701062908D0016841F084
:102FF0000101016003E0026842F00102026000206A
:10300000704702206870211D206800F0B9FA012085
:10301000A872A870E87028716871A871E8712872A8
:1030200068726870002032BD38B5040001D10120FB
:1030300032BD00F089F818B900F09EFAFEF7EDFBFA
:10304000DFE710B5044604F13E0009B9027807E055
:10305000042908BF427803D008290CBF8278C278BF
:10306000012A01D0012010BD11B9022202700AE02C
:10307000042902D10222427005E0082907BF02227A
:1030800082700223C3702068012200F0C4FB00F0AC
:1030900032F818BF884200F034F818BFB0F1804F02
:1030A00012D000F01FF81CBFDFF8883098420BD018
:1030B00000F014F818BF884206D000F02FF81CBFAB
:1030C000DFF88020904205D100F023F804D000F012
:1030D00028F801E000F00AF8002010BDDFF85820C1
:1030E00090427047DFF8482090427047026842F0F3
:1030F00001020260704720680C4ADFF840109042DD
:10310000704703D1436C43F400434364206890420A
:103110007047816801F00701062970470849884215
:103120007047016841F001010160704700000140F3
:103130000004004000080040000C00400004014072
:10314000004001400018004004F13C0568787047D9
:1031500020680122042100F05EBBF8B504000E4691
:1031600001D10120F2BDFFF7EFFF18B900F004FA1A
:10317000FEF712FB022068702168DFF834038A68CA
:1031800002408A60211D206800F0FAF92268DFF809
:10319000241393689069176A0140B0680843B169C5
:1031A00040EA0120DFF810130140F0680843F1699C
:1031B00040EA0121306941EA0010316A40EA013CED
:1031C0007068716927F0AA0707433068034347EA2C
:1031D000011793602168C1F818C0012120680762B7
:1031E000A972A970E970A971E97169700020F2BD36
:1031F00070B500F04CF839B9012A08BF012D19D17A
:103200000221017001711DE004290BD1012B08BFBF
:10321000012E0FD10221417041710122206800F07E
:1032200040F81FE0012A08BF012B03D1012D08BF80
:10323000012E01D0012070BD00F01DF811B104294C
:10324000EBD006E000F030F82068C16841F00201E0
:103250000CE000F029F8FFF77BFF2068C16841F01F
:103260000201C1602068C16841F00401C1602068AA
:1032700000F007F870BD02220270427002714271C4
:103280007047016841F00101016000207047044669
:1032900004F13E0002784378057946797047286842
:1032A0000022042100F0B7BA20680122002100F0BA
:1032B000B2BA70B504462068C5680669B10714D56E
:1032C000AA0712D56FF002010161012222778069FD
:1032D00010F0030F204602D000F0B4FF03E002F02C
:1032E00068F800F07BF800202077700715D5690793
:1032F00013D520686FF004020261022121778069F2
:1033000010F4407F204602D000F09CFF03E002F062
:1033100050F800F063F800202077300715D5290712
:1033200013D520686FF00802026104212177C0697B
:1033300010F0030F204602D000F084FF03E002F0FB
:1033400038F800F04BF800202077F00615D5E90694
:1033500013D520686FF01002026108212177C0693F
:1033600010F4407F204602D000F06CFF03E002F032
:1033700020F800F033F80020207706F0010105F076
:103380000100014206D020686FF001010161204672
:10339000FFF7C6FB300608D5290606D522686FF070
:1033A00080001061204602F005F8700608D5690615
:1033B00006D522686FF040001061204601F0FBFF47
:1033C000B0060AD5A90608D522686FF02000106162
:1033D0002046BDE8704001F0EFBF70BD204601F00F
:1033E000ECBF002084F83C002846704770B500F020
:1033F00058F801D1022070BD012084F83C0032B1A0
:10340000042A15D0082A25D00C2A34D045E020689B
:1034100000F008F92168886940F00800886188692F
:1034200020F0040088618A69306902438A6135E0CE
:10343000206800F023F92068816941F4006181610E
:10344000816921F4806181618169326941EA0221E7
:10345000816123E0206800F041F92168C86940F0EB
:103460000800C861C86920F00400C861CA693069F1
:103470000243CA6112E0206800F05FF92068C16968
:1034800041F40061C161C16921F48061C161C16918
:10349000326941EA0221C16100E00125FFF7A1FF85
:1034A00070BD0446002594F83C0001280E46704784
:1034B000F8BFFFFFFCFCFFFF0303FFFF70B50646EC
:1034C00006F13C0500242878012801D1022070BDB6
:1034D0000120287002226A70DFF8A4023268936823
:1034E000034093600868020018BF102830D02028DD
:1034F00018BF30282CD0402826D0502819D060285A
:103500001BD0702806D0B0F5805F27D0B0F5005FE3
:1035100007D022E000F02BF83068816841F0770195
:1035200005E000F024F83068816841F48041816052
:1035300014E000F018F850210BE0CA6849683068C0
:1035400000F045F9602104E000F00DF8402100E0B2
:103550000146306800F04DF900E001240120687058
:1035600000F00AF870BDCA684968306820E1CB688D
:103570004A688968306844E1002129702046704714
:10358000F0B5804C0568804B804E814FDFF804C257
:10359000A04218BFB0F1804F07D0604518BFB842B5
:1035A00003D0B04218BF98420DD14A6825F070058B
:1035B0001543A04218BFB0F1804F17D060451CBF23
:1035C000B842B04212D098421CBF734A90420DD00C
:1035D000724EB0421CBF724A904207D0714EB04248
:1035E0001FBF714A9042714EB04203D1CA6825F4A0
:1035F000407515434A6925F0800515430560A042D2
:103600008D68C5620A68826212BF984209690163C7
:10361000012242610169CA0703D5016949084900CD
:103620000161F0BDF0B5066A026A564F52085200B9
:10363000026226F00206446885690B688A6825F0F4
:1036400073051D431643504BB84218BF984207D12B
:10365000CA6826F008061643B84226F0040601D0D0
:10366000984205D14B698A6924F440741C43144381
:1036700044608561496841630662F0BDF0B5056A42
:10368000026A404E22F01002026225F020054368D3
:1036900084690A6824F4E64444EA02248A6845EA14
:1036A0000215394AB04218BF904208D1CF6825F0C0
:1036B000800545EA0715B04225F0400501D090424B
:1036C00006D14E698A6923F44063164343EA8603B0
:1036D00043608461496881630562F0BDF0B5056AA5
:1036E000026A22F48072026225F400754368C4699C
:1036F0008E680A6824F0730445EA06251443214EB7
:10370000214AB04218BF904208D1CF6825F4006525
:1037100045EA0725B04225F4806501D0904206D1E4
:103720004E698A6923F44053164343EA0613436003
:10373000C4614968C1630562F0BD70B5046A026A7C
:10374000104E22F48052026224F400544268C3698D
:103750000D6823F4E64343EA05238D6844EA053403
:10376000B0421CBF084DA84204D14D6922F48042EA
:1037700042EA85124260C36149680164046270BD17
:103780008800FFFF0000014000040140000C0040E1
:103790000008004000040040004001400044014097
:1037A0000048014000180040001C0040002000407C
:1037B00010B5036A046A64086400046223F00A0313
:1037C000846924F0F00444EA021484612EE010B508
:1037D000036A046A24F01004046223F0A0038469DD
:1037E00024F4704444EA0234846143EA011303621E
:1037F00010BD826822F07002114341F00701816020
:10380000704710B5846824F47F442143114341EA92
:103810000321816010BD10B501F01F01036A01246E
:103820008C40A343036202FA01F1036A1943016267
:1038300010BD000070B500F13C031A78012A01D1D7
:10384000022070BD01221A7002245C7005686E6847
:10385000AC680A6826F0700616436E600268144869
:10386000824218BFB2F1804F11D0104882421CBF73
:10387000104DAA420BD00C4882421CBF0E4DAA42EA
:1038800005D0084882421CBF0C4DAA4204D14868AA
:1038900024F08004044394600121597000201870C2
:1038A00070BD000000400140000C004000040040DA
:1038B00000000140000800400004014000180040E2
:1038C00038B5040001D1012032BD00F019F808B963
:1038D00000F01AF800F01DF800F025F8FFE741614C
:1038E00000F001F832BD2068C16841F40051C160A8
:1038F0000020686020216970A97000216163704711
:1039000004F1400568787047002129702046FDF7D2
:10391000C7BF242068702068C16821F40051C160CD
:10392000204600F020BC2068016921F4904101612B
:103930002068416921F02A0170472DE9FC410646C3
:103940000D4696F84100202814461F4640D10DB17F
:10395000200001D101203CE000207064212186F884
:103960004110FEF749FAB4848046F48400F033F83D
:1039700004BF306900281ABF2C460025002412E03D
:1039800000228021304600F0C0FAE0B93068002CF7
:1039900012BF14F8011B35F8021BC1F30801416086
:1039A000F08C411EF1844346F08C00970028E7D14B
:1039B00000224021304600F0A8FA20B9202086F8E5
:1039C0004100002005E0202086F84100032000E0AF
:1039D0000220BDE8F681B068B0F5805F70472DE940
:1039E000F84306460C4696F84200202815461F4626
:1039F00069D10CB1280001D1012065E000F06AF81E
:103A00000120306300217163FEF7F6F9B585804629
:103A1000F585FFF7E0FF04BF3069002807BF0025E8
:103A2000A14625464FF0000900203880089CF08D03
:103A300000283FD031680868C2060DD500230093E6
:103A40000A6800924B680093009A388820B10221DE
:103A5000716300F03BF834E0086882061BD52DB98D
:103A60004868C0F3080029F8020B0EE0FFF7B3FF27
:103A700004D0002804BF3069002801D1486802E062
:103A8000486800F07F0005F8010B3888401C38803A
:103A9000F18D481EF08514F1010FC8D0FEF7ACF986
:103AA000A0EB0800844201D3002CC0D100F00EF836
:103AB000032009E0B08DF18D401A3880202286F86D
:103AC0004220002000E00220BDE8F283202086F89A
:103AD0004200704700207064222186F8421070472F
:103AE00038B5044694F84200202809D109B11000E5
:103AF00001D1012032BD00F005F800F041FA07E0E5
:103B0000022032BD012020630023636320467047FA
:103B1000010018D1206B012814D1002200922268E4
:103B200000F013F80098226802F10C0353E8002F0C
:103B3000206800F10C0542F0100245E80020002842
:103B4000F1D100E00121084632BD136800935268AC
:103B500000927047216801F1140252E8001F2068AA
:103B600000F1140321F0400143E8001000287047E1
:103B70007CB5044621680B68CD684A6913F00F00D4
:103B800007D1980661D5AA065FD52046BDE87640E4
:103B900084E2D00702D415F4907F56D0D80705D51B
:103BA000E90503D5606C40F001006064580705D555
:103BB000D10703D5606C40F002006064980705D51A
:103BC000D10703D5606C40F004006064180707D586
:103BD000A90601D4D00703D5616C41F008016164E6
:103BE000606C002830D0980604D5A90644BF204652
:103BF00000F054FA20684069616C0A0701D440065D
:103C00001DD5204600F023FA20684169480611D5E9
:103C1000FFF7A0FFFCD1E06B60B10FF275410165C9
:103C2000E06BFEF7D9F900280ED0E06B016DBDE81E
:103C30007C4008472046BDE8764001F0BFBB2046E7
:103C400001F0BCFB0020606473BD206B012804F10F
:103C5000410240F08D80D80600D5EE0640F1888004
:103C6000002300930D6800954B6800930098496904
:103C7000480641D5E16B0868406880B20028E3D06F
:103C8000A38D9842E0DAE085C869B0F5807F2DD039
:103C9000216801F10C0050E8001F236803F10C05B6
:103CA00021F4807145E800100028F1D100F09CF863
:103CB000490800F11405490045E800100028F5D135
:103CC00000F092F800F1140521F0400145E80010E1
:103CD0000028F5D1202050700021216300F08AF8DF
:103CE00000F08AF9FAD1E06BFEF73AF9022060633E
:103CF000A18DE08D091A35E0A08DE18D411AE08D8E
:103D000000281CBF88B200286DD0206800F10C0389
:103D100053E8003F00F10C0623F4907346E80030AE
:103D20000028F2D1206800F1140353E8003F5B083B
:103D300000F114065B0046E800300028F2D1202094
:103D4000507000222263206800F10C0252E8002F1C
:103D500000F10C0522F0100245E800200028F2D105
:103D6000022060632046BDE87C4089B2FEF7C8BBF4
:103D7000180629D52E0627D51078212833D1A0681A
:103D8000B0F5805F04BF2069002808D1206A02884E
:103D9000C2F308024A60206A811C216204E0206AA2
:103DA000421C226200784860E08C401EE08480B2B1
:103DB000C8B92068C16821F08001C1602068C1686D
:103DC00041F04001C16073BD58060CD56B060AD5A1
:103DD000C86820F04000C860202111702046BDE86E
:103DE000764001F0ECBA73BD206800F1140151E88F
:103DF000001F7047206800F10C0151E8001F00F11E
:103E00000C03704710B500F022F812D40021C185D0
:103E100000F023F800F035F9FAD100F027F800F0AF
:103E200033F8202180F84210026B012A01D100F002
:103E30008CF900214163026B012A04D1818DBDE818
:103E40001040FEF75DBBBDE8104001F0B9BA014675
:103E5000886B09680A68D3057047026802F10C0193
:103E600051E8002F036803F10C047047016801F169
:103E7000140252E8002F520801F11404520044E8E1
:103E800000210029F2D17047016801F1140252E8C3
:103E9000002F01F1140422F0400244E8002100291F
:103EA000F2D17047806B01214163026B012A18BF78
:103EB00001F087BA818D4908FEF722BB000000009F
:103EC00038B5846B2068406904F1410529782129BF
:103ED00006D1010604D50022E284204600F0A3F8B2
:103EE000216848696978222906D1400604D5002155
:103EF000E185204600F0ABF8606C40F01000606493
:103F00002046BDE8324001F059BA2DE9FC41089C39
:103F100005460E4690461F46286801683140B1426A
:103F20000CBF01200020404528D114F1010FF3D02F
:103F3000FDF762FFC01B844200D314B90320BDE823
:103F4000F6812968C8684207E6D5802E18BF402E42
:103F5000E2D008680207DFD5002300930A680092C8
:103F6000496800910098284600F071F805F140007A
:103F700008214160002202700120E0E70020DEE716
:103F80007CB504461346A162A3850020606422220A
:103F900084F84220A048E26BD063E26B9F48106433
:103FA000E26B9F48D0640020E56B28650A462668CE
:103FB000E06B311DFDF7A3FF0021009121680A6825
:103FC000009249680091009A206930B100F01AF817
:103FD00041F4807100F012F8F8D100F01CF841F0C3
:103FE000010100F00BF8F8D100F015F841F04001A4
:103FF00000F004F8F8D176BD21F0100143E800107C
:1040000000287047216801F10C0050E8001F226869
:1040100002F10C037047206800F1140151E8001F01
:1040200000F11403704710B500F009F822F0C00247
:1040300000F029F8F8D1202180F8411010BD016866
:1040400001F10C0252E8002F01F10C04704710B589
:10405000FFF7F5FF22F4907200F015F8F8D1FFF7A2
:1040600005FF016B012906D1FFF7F7FE22F01002D0
:1040700000F009F8F8D1202180F8421000220263F4
:1040800010BD22F4807244E800210029704700002E
:10409000806B0021C185C18401F090B91CB590F8F6
:1040A000421022294FD18168826AB1F5805F0AD11E
:1040B000016969B903685968C1F308011180826A0E
:1040C000911C81620FE0002904BF0169002902D11F
:1040D0000368596803E00168496801F07F011170C5
:1040E000816A4A1C8262C18D491EC18589B241BB69
:1040F0000168CA6822F02002CA600168CA6822F416
:104100008072CA6001684A69520852004A612021DF
:1041100080F8421000224263016B01290FD1026333
:1041200000F013F802681168CB0604D5002400944F
:10413000FFF70BFD0099818DFEF7E2F901E001F038
:104140003FF9002016BD022016BD016801F10C02E6
:1041500052E8002F01F10C0422F0100244E8002183
:104160000029F2D1704770B5044622681169E068F1
:1041700021F4405101431161D3682A48A1680340EA
:1041800020690B4361690343E0690B430343D36038
:104190005169A06921F440710143516122498A4269
:1041A0001CBF2248824202D1FDF7C2FD01E0FDF7AB
:1041B000B7FD62682568E46964261921B4F5004FEB
:1041C000A1FB000112D1D30F5200FEF779FD00F0E0
:1041D0002FF8F60032366420B6FBF0F0420002F40D
:1041E000F87202EB011200F0070010E0930F92004A
:1041F000FEF766FD00F01CF8360132366420B6FB8F
:10420000F0F000F0F00202EB011200F00F00801855
:10421000A86070BD00000000053E0008A53E000833
:10422000C13E0008F369FFFF001001400014014087
:104230006421B0FBF1F106FB110670473C211F48D9
:10424000FEF7D6BF10B501681D4A1E48914207D13E
:1042500001681268D3064CBF491E491C016010BD9D
:10426000B1F1804F09D141684FF080421368DC06FC
:104270004CBF491E491C416010BD134A914207D1F1
:1042800081681268D3064CBF491E491C816010BD6D
:104290000E4A914207D1C1681268D3064CBF491E2D
:1042A000491CC16010BD0A4A914206D101691268D9
:1042B000D3064CBF491E491C016110BD14480020A3
:1042C00000000140BC5200200004004000080040F3
:1042D000000C0040474800214FF6FF728176828330
:1042E000704770B50246444B424C09E012F8015B3E
:1042F0004540A576A57E33F8156086EA1026A6838C
:104300000D46691EADB2A08B002DEFD170BD70B50A
:1043100004460D466019801E4178067846EA01265B
:10432000FFF7D8FFA91E89B22046FFF7DAFF8642C1
:1043300001D1002070BD012070BD2E49486070473A
:104340000A4601462B4840686423FFF7F6BA1CB5BD
:10435000284800F1180300F108010A24406800947D
:104360000F22FFF73CFB16BD70B50546214C68785F
:1043700010283AD10020A0764FF6FF72A2830721C1
:104380002846FFF7AEFFA979A868FFF7AAFFA08B20
:1043900028732846A18B090A69730721FFF7D0FF0C
:1043A000060010D1A979A868FFF7CAFF06000AD154
:1043B000022105F10C00FFF7C3FF060003D1FFF750
:1043C000C6FF060001D0304670BD208B08280CD1F6
:1043D000082104F10800FFF79AFF30B906222946A8
:1043E00004F1080000F0EEFF00B101262670EAE7B4
:1043F00000000000E4520020E08D0008464A91824F
:10440000012344490870102048708B700020C87048
:10441000087102230120487114328B718A6013E005
:104420000121EBE73C4B99619A83012239490870DD
:1044300010208A70CA70487000220A7103204871E7
:10444000062218338A718B600846FFF78DBF2DE96D
:10445000F843314C092020841B210F20A185E085E1
:104460001821062021866086962141F65830218544
:1044700061854FF4C875E0864FF47A4700F038F84C
:10448000064640F2D1780120FFF7CAFF0520FFF76A
:10449000C7FF0620FFF7C4FF8146012000F0D2F8D5
:1044A000FDF7AAFC801B404502D2B9F1000FEAD10A
:1044B0001120208432211B206184A184E184218584
:1044C0006185A0850F211820E1852086032140F613
:1044D000B8306186E08600F00BF80446012000F059
:1044E000B1F8FDF789FC001B4045F7D3BDE8F18327
:1044F000A58627876787FDF77FBC084B0A46994248
:10450000B8BF1A4604DBB1F5806FA8BF40F2FF3296
:10451000032187E7245300202C52002001FCFFFFD9
:104520000549086070470A460146034800684FF491
:104530007A73FFF702BA000038530020E0B5012873
:1045400002D10A2228A104E0022804D15FF00A0265
:1045500028A100F037F80A2130E0000080B58AB0C9
:10456000009201914FEA000225A102A800F03AFF53
:1045700002A800F0F7FEC1B202A8FFF7D4FF0BB00B
:1045800000BD0000E0B5012802D1072221A104E00E
:10459000022804D15FF0070220A100F013F80CE01C
:1045A000E0B5012802D107221EA104E0022804D1AF
:1045B0005FF007021DA100F005F807216846FFF72C
:1045C000B2FF07BD684600F0C1BE0000E0B501289B
:1045D00002D1072217A104E0022804D15FF00702EC
:1045E00016A1FFF7EFFFE8E74E31204F20523130A0
:1045F000310A00004E32204F20523130310A000083
:104600004E25752070256420762575206125750A54
:10461000000000004E31204F204C0A004E32204F47
:10462000204C0A004E31204F20550A004E32204FB8
:1046300020550A004E31204F20720A004E32204F82
:1046400020720A0038B50446FDF7D6FB14F1010FBD
:10465000054602D0044801786418FDF7CDFB401BE5
:10466000A042FAD331BD00BF0C00002080B5DFF8B6
:104670001C01016801F0F4F9012803D0BDE80140F4
:1046800001F01CBB01BDEFF3058000B16EE0DFF867
:104690000011086810B901220A6070474FF0FF301E
:1046A0007047000080B5EFF3058000B10FE0DFF840
:1046B000E0000168012909D1DFF8D81000220A7052
:1046C0000223036000F0C3FF002002BD02E06FF090
:1046D000050002BD4FF0FF3002BDF8B584B00023E5
:1046E0000393EFF30583002B3DD103003BD08025DE
:1046F000182600245AB3136803B11C4693691BB1F2
:104700001E0004D0392E02D21379DF0701D5002014
:104710002AE0536903B19D08D2F80CC0976887B1AD
:10472000BCF15C0F1FD31269002A18BF002B1AD0EE
:1047300001920B46029700962A46214600F072FE2F
:1047400010E0BCF1000F04BF1269002A0BD103ABCB
:10475000019300960B46AAB2214600F092FE012872
:1047600001D000200390039805B0F0BD6FF0050064
:10477000704710B5EFF3058111B16FF0050403E048
:10478000002408B100F049FF204610BD10E000E011
:10479000345300201FED00E0034B036003F15C0085
:1047A0000860802111607047004C00202DE9F8431B
:1047B000040016D02078DFF80063C10713D5B06875
:1047C00000F00C00042807D0B06800F00C000828A6
:1047D0003DD1706841023AD53068810303D56068E5
:1047E000002800F063812078B44F810719D5B068A4
:1047F00010F00C0F07D0B06800F00C0008285BD157
:104800007068410258D43068810703D5E0680128F8
:1048100040F04C813168206921F0F80141EAC00183
:1048200031602178080779D56069A549002868D0EA
:1048300001220A60FDF7E0FA0546706F81076DD42A
:10484000FDF7DAFA401B0228F7D9032031E160684E
:10485000B0F5803F04D1306840F48030306011E022
:10486000B0F5A02F306806D140F480203060316868
:1048700041F4803105E020F480303060316821F46B
:1048800080213160606858B1FDF7B6FA054630689E
:104890008103A8D4FDF7B0FA401B6528F7D3D4E70D
:1048A000FDF7AAFA0546306881039CD5FDF7A4FA06
:1048B000401B6528F7D3C8E7E068A8B1012139603B
:1048C000FDF79AFA05463068810705D4FDF794FA9A
:1048D000401B0228F7D9B8E73068216920F0F800BA
:1048E00040EAC10030609CE73860FDF785FA054674
:1048F0003168880795D5FDF77FFA401B0228F7D964
:10490000A3E70860FDF778FA0546706F810705D5C3
:10491000FDF772FA401B0228F7D996E72078410785
:104920005FD5306C0025C1000AD400950125316C9B
:1049300041F080513164306C00F08050009000985C
:10494000DFF88081D8F80000C10513D4D8F8000042
:1049500040F48070C8F80000FDF74EFA8146D8F8A0
:104960000000C10506D4FDF747FAA0EB09000228B4
:10497000F5D96AE7A068012805D00528306F06D16F
:1049800040F004003067306F40F0010005E040085F
:1049900040003067306F20F00400306741F2893802
:1049A000A06860B1FDF728FA8146306F810713D403
:1049B000FDF722FAA0EB09004045F6D345E7FDF7E5
:1049C0001BFA8146306F810706D5FDF715FAA0EB7B
:1049D00009004045F6D338E71DB1306C20F0805017
:1049E0003064A069002863D0B16801F00C01082987
:1049F0003AD002282AD100203866FDF7FDF9054695
:104A00003068810105D5FDF7F7F9401B0228F7D979
:104A10001BE7E069216A626A0843A16A490840EA23
:104A20008210491E40EA0140E16A40EA016070607C
:104A300001203866FDF7E0F904463068810137D47B
:104A4000FDF7DAF9001B0228F7D9FEE600203866E8
:104A5000FDF7D2F904463068810129D5FDF7CCF97C
:104A6000001B0228F7D9F0E601281FD07068E26920
:104A700000F48001914202BF00F03F01226A91429E
:104A800001BF47F6C0710140626AB1EB821F0DD1D0
:104A9000A26A520800F44031521EB1EB024F02BF2D
:104AA00000F07060E16AB0EB016F01D0012000E01E
:104AB0000020BDE8F28300BF0038024000004742FA
:104AC000800E47420070004010B5384C04F11800C9
:104AD00001F050F904F11400BDE8104001F0B6B93E
:104AE00010B5324C04F1180001F08CF91E20FFF7CC
:104AF000A9FD04F1180001F041F91E20FFF7A2FD05
:104B0000062104F1180001F04CF900F01AF801F048
:104B100089F900F016F801F089F900F012F801F0B7
:104B20008BF900F00EF801F08BF900F00AF801F0B3
:104B30003FF91F4801F0F0F9A0804FF4FA7020818E
:104B400010BD002104F118007047184800210161D0
:104B50007047F8B5154E06F1180001F042F9B78814
:104B6000C71B77803FB2380048BF4042022814DBA1
:104B7000306901F0D3F90D4604460D2197FBF1F0A1
:104B800001F0F0F90B4A0C4B01F0FEF922462B46DE
:104B900001F0CCFA01F088FB306196ED040ABDEE1D
:104BA000C00A10EE100A00B2F2BD000094520020BC
:104BB00000000308AFB5F7A92A34603FA249487046
:104BC000704710B5B14C84ED000B84ED021BD4E9A5
:104BD0000001D4E9022301F09BFBC4E9040110BDEC
:104BE000994A108351837047974A108251827047C7
:104BF000B0EE445AF0EE645AB0EE434AF0EE634A27
:104C0000B0EE423AF0EE623AB0EE412AF0EE612A9E
:104C1000B0EE401AF0EE601A9FED890B9C4801F04F
:104C20009BBC894880ED280B704787498883704773
:104C30008549888270478449A1F840007047000088
:104C400080B59FED821B9FED830BFFF7BAFF4FF4FA
:104C500061710020FFF7C4FF4FF4B4710020FFF72B
:104C6000C3FF9FED7E4B9FED7F3B9FED802B9FED24
:104C7000811B9FED820BFFF7BBFF734801210022D0
:104C800080F848108282A0F84020828301BD70B570
:104C90006D4C2DED068BB4F91C00218BB4F91E2050
:104CA0008842B8BF08B2618B8142B8BF08B2A08306
:104CB000B4F91C00811A002903DDB4F920108A1808
:104CC00004E046BFB4F92210521A0246E28304F50A
:104CD0001E7501F047F941EC180BB4F9140001F00E
:104CE00041F941EC100B53EC102B6648664901F07A
:104CF0004BF941EC190BB0EE490AF0EE690A01F0EC
:104D000072FDB0EE40AAF0EE60AAB0EE490AF0EEF5
:104D1000690A01F062FDB0EE409AF0EE609A53EC41
:104D20001A2B51EC190B01F001FA00F0B5F8C5E9A6
:104D3000000153EC192B51EC1A0B01F05BFD00F054
:104D4000ABF804F1480641EC100B307885ED020B0E
:104D500085ED040BD0B1B4F9420001F003F941EC48
:104D6000110BB4F94000B0EE418AF0EE618A01F017
:104D7000F9F841EC100BB0EE481AF0EE681A04F1A5
:104D8000500001F052FC96ED1A8B09E004F150003E
:104D900001F008FDB4F9400001F0E4F841EC180B13
:104DA000D4E9780100F078F881F00041D5E90223D8
:104DB00041EC190B85ED069B85ED088B85ED0A8B83
:104DC00051EC180B01F0B2F941EC1A0BD5E90401D2
:104DD00053EC182B01F00EFDD5E9002341EC180B24
:104DE00051EC190B01F0A2F941EC190B85ED0C9B6C
:104DF00085ED0EAB53EC182B0020264901F0C4F8CA
:104E0000C5E9100151EC190B81F0004101F064FD7E
:104E100001B20620FFF771FBD5E90E0101F05CFD40
:104E200001B20520FFF769FBD5E9100101F054FD3F
:104E3000BDEC068B01B2BDE870400120FFF75DBB01
:104E4000FCA9F1D24D62503F404900200000000013
:104E5000000074400000000000507440000000009A
:104E600000C0724000000000000000007B14AE474C
:104E7000E17A743F0000000000002E40666666661E
:104E80006666FA3F399D52A246DF913F104B0020E3
:104E9000904900200000F0BF53EC182B01F074B8CB
:104EA000FFF767BC70B5DFF800442078022818D1FE
:104EB000DFF8F86300F016F8DFF8F453012804BFB8
:104EC0002878002804D1DFF82814A9600120287070
:104ED00000F008F828B9A86000216960012020705E
:104EE000297070BD01213046FDF7C6BA70B5DFF8F4
:104EF000B843207800284DD1DFF8B0630221FFF7D6
:104F0000F2FFDFF8AC53012804BF2878002806D14F
:104F1000DFF8A033322200F07BF801202870022154
:104F2000FFF7E1FF70B9287802280BDA0120FFF7BC
:104F300029FB0120FFF74AFB4FF47A7300F0F2F9E6
:104F4000022028701021FFF7CEFF002804BF287828
:104F5000022809D1FFF716FB0220FFF737FBDFF825
:104F60009003A86003212970FFF7BCFF002804BF4D
:104F7000287803280ED10021A96069606FF03E03F4
:104F800000F0D0F96923462200F042F80120207099
:104F90000021297070BD010000D1704780B5112833
:104FA00035DAC34901F1080252F82000886042F264
:104FB00010718842B4BF41F288304FF4FA50FFF7C5
:104FC0006FFF6FF05E03642200F0ADF982232822A8
:104FD00000F01EF800F0A3F9B7490A686E2050638C
:104FE00000F09DF92B231E2200F012F800F097F933
:104FF00005232822C8210220FFF7B0FA4FF47A6077
:10500000FFF74EFFA848022163220170427001BDE4
:1050100064210120FFF7A2BA70B5A34C0121A17051
:1050200000F07DF900F075F900F076F94FF4EB70BF
:10503000FFF701FE00F030F9B4F94200B0F5E97F66
:10504000F8DB00F02DF94FF4FA70FFF7EEFD9B4D01
:1050500001E000F025F9A86899498842F9DA4FF48F
:10506000C870FFF7E2FD01E000F01AF9A868954961
:105070008842F9DA00F00CF901E000F011F9A868B3
:1050800091498842F9DA00F047F9904E01E000F0CA
:1050900040F9B6F9280040F24D418842F7DA4FF462
:1050A000AA60FFF7C8FD9FED8A0BFFF7BAFDB4F9C0
:1050B000420040F24C518842F5DB4FF4C870FFF7D4
:1050C000B4FD00F0EDF84FF47A70FFF7E9FE01E06F
:1050D00000F01FF9B6F9280040F661118842F7DAAE
:1050E00000F0D6F801E000F014F9B6F9280040F617
:1050F00099018842F7DA4FF4E670FFF79CFD00F063
:105100000BF900F0C9F8B4F94200B0F5EB7FF8DA1A
:1051100000F0C6F800F0BCF840F2DC50FFF7C0FE2B
:10512000C82001E04FF49670FFF77FFDB6F9280024
:1051300040F6F1218842F5DA9620FFF776FD6648C1
:10514000FFF779FD00F0A8F8B4F9420010F5E17F0F
:10515000F8DA9FED620BFFF764FD4FF49650FFF70E
:105160009FFE3220FFF761FD00F08EF84FF4827051
:10517000FFF75EFDB6F9280040F227218842F5DAF4
:10518000B6F92A00B0F5E66F07DA4FF48270FFF740
:105190004FFDF5E75A20FFF74BFDB6F92A0040F224
:1051A00045718842F6DA00F0B4F84E48FFF743FD47
:1051B00000F06AF84FF47A70FFF772FE01E000F039
:1051C00063F8B6F928003328F9DA00F09FF800F008
:1051D000A6F802202070FFF765FE01E000F054F809
:1051E00020780228FAD00120FFF7E8FC01E000F067
:1051F0008DF860780128FAD0FFF754FE01E000F046
:1052000085F820780228FAD0C820FFF711FD00F0B9
:1052100083F80020A86000F07FF8A86842F6F82123
:105220008842F8DBC820FFF703FD00F075F8A86896
:1052300043F2C8218842F8DB00F026F85020FFF73F
:10524000F7FC01E000F020F8B6F92A0040F2D17135
:105250008842F7DAB420FFF7EBFC3220FFF7E5FCD9
:1052600040F6AC50FFF785FA9FED1F0BFFF7D9FC16
:105270006FF009030A2200F056F80F490A6832203D
:10528000506300F043F8FEE79FED1A0BFFF7C9BC2F
:105290004FF49670FFF7C9BC9FED180BFFF7C1BC28
:1052A0009FED180BFFF7BDBC4049002000000240F5
:1052B0001C00002018FCFFFFEC480020BC5200201E
:1052C000BDB7FFFF91B6FFFFC9B5FFFF68520020D1
:1052D0000000000000406F4034FEFFFF00000000AF
:1052E00000003E4052FEFFFF0000000000000000F2
:1052F0006079FEFF0000000000005940000000003F
:1053000000C0724000000000000049400020FFF78C
:105310008CBC0020FFF78CBCC820FFF786BC4FF484
:10532000FA60BDE5462264210220FFF717B90000AC
:105330000248416802788A18426070470C000020D9
:10534000704700000022FDF743BD00004AB1000095
:1053500011F8013B521E00F8013B1CBF11F8013B44
:10536000F8E7704700F1010310F8011B11B110F8C4
:10537000011BFBE7C01A704762F30F2262F31F4262
:1053800000B500BF130096469446103928BFA0E828
:105390000C50FAD85FEA417C28BF0CC048BF40F8E7
:1053A000042BC90728BF20F8022B48BF00F8012BA7
:1053B00000BD70477047704770477047704770472F
:1053C0007047704703000020521E22BF13F8010BE4
:1053D00011F801CBB0EB0C00F6D0521C08BF104600
:1053E000704700000CB430B583B00A4606A902919C
:1053F000044600250194009502AB01A908487844B1
:105400001E3001F087FA019A157000284EBF04463D
:105410000198041B204603B030BC5DF80CFB00BFB4
:10542000A7D9FFFFF0B585B050260B9D25B986F3AF
:10543000118800F03EFAFEE70C9C24B986F311882F
:1054400000F037FAFEE75C270097009F5C2F04D03E
:1054500086F3118800F02DFAFEE7009E25630026F2
:10546000022584F8595004AF0A9D039602940197CF
:10547000009500F034F8204600F077F8049805B065
:10548000F0BD2DE9F8430646174684B08846994694
:10549000B80002F0A3FA05001CD05C2002F09EFACE
:1054A000040014D00020256384F85900039002946E
:1054B0000D980C99019000914B463A464146304672
:1054C00000F00DF8204600F050F8012004E02846D6
:1054D00002F011FB4FF0FF3005B0BDE8F0832DE97D
:1054E000F0470A9F81460C461546386B9A46A5221E
:1054F000A900FFF741FF396B01EB8502101FC008BF
:105500004FEAC00808F0070007F1340554B1002144
:10551000625C6A54605C10B1491C1029F8D3002009
:10552000E87300E02870089E099C372E88BF372654
:10553000FE62AE61E861C6F13806381D02F03BFB41
:1055400007F1180002F037FB3F61BE617F62002067
:10555000286287F8580052464946404600F010FB42
:10556000386004B12760BDE8F0872DE9F04100F014
:105570006BF8DFF80455DFF86885E86C401CE864D8
:105580001426A86A28BBAC62E86C012829D1002740
:1055900006FB07F0404402F001FB7F1C382FF7D3D5
:1055A00005F1740002F0FAFA05F18807384602F0B6
:1055B000F5FA284602F0F2FA05F1140002F0EEFACC
:1055C00005F1380002F0EAFA05F17400E8622F6391
:1055D00007E0A86D28B9E06AA96ACA6A904228BFA4
:1055E000AC62A86E401CA8666064E06A696D814286
:1055F00038BF68654643211D08EB060002F0DEFA5D
:1056000000F04BFBA86D30B100F0A1F903D200F01F
:1056100076FA00F04EF9BDE8F08180B588B1DFF888
:105620005824116F21B100F02BF900F042F9FEE788
:10563000116F491C1167002100F06CFA00F044F86A
:1056400008B900F031F901BD044600F00DBB80B58A
:1056500086B000210591049103AA04A905A8FFF7CB
:105660009BF8059804990290002200920191002372
:10567000039A0FF204510FF26130FFF7D3FE98B195
:1056800002F0D6FA5021012810D181F3118800F0E0
:1056900010F9DFF8D0044FF0FF31C16601228265B6
:1056A0000021016500F08EFA07B000BD10F1010F76
:1056B000FAD181F3118800F0FCF8FEE7DFF8A404CA
:1056C000016F491C0167704770B5DFF8AC63306F3C
:1056D0000024002520B900F042F800F0EAF8FEE7C7
:1056E00000F0C2FA306F401E3067306F002835D1AD
:1056F000F06CD0B932E0F068C46800F034F800F023
:10570000BDF9E06A716DDFF86024814238BF7065D1
:1057100014235843211D104402F050FAE06AB16A84
:10572000CA6A904224BF0121316630680028E2D164
:105730000CB100F088F9F46D3CB100F01CF808B130
:1057400001203066641EF8D1F565306E30B1DFF8A7
:105750001C144FF08050012500F0AAF8C8E1502138
:1057600081F31188704704F1180002F04DBADFF898
:10577000F403006D70472DE9F843DFF8FC72386FD1
:105780000026002850D13C6D641C3C6510D1F86A9D
:10579000006820B1FFF7E3FF00F08BF8FEE7F86A3E
:1057A000396BF9623863786E401C786600F04BF90B
:1057B000F86EDFF8B49384424FF0140827D319E051
:1057C000281D02F021FAA86A18B105F1180002F0AC
:1057D0001BFAE86A796D814238BF786508FB00F0F2
:1057E000291D484402F0EAF9E86AB96ACA6A904297
:1057F00028BF0126F86A006830B1F86AC168CD6830
:1058000068688442DCD201E04FF0FF30F866B86A85
:10581000C06A08FB00F059F80010386E022928BF52
:10582000012620B1012602E0F86D401CF86563E115
:1058300010B5DFF84422106F10B10121116610BDC0
:105840001066516DDFF8203300E0491E14244C43EC
:10585000185930B90029F8D100F012F800F029F8F1
:10586000FEE7181900F1080443685B684360A3422F
:1058700004BF5B6843604068C3689362516510BDB4
:10588000502080F31188704710B50C4620B9FFF7FF
:10589000F7FF00F00EF8FEE700F028F802F09BF9A1
:1058A0002046BDE8104009E0DFF8C0124FF08050FC
:1058B0000860BFF34F8FBFF36F8F7047012100F077
:1058C00029B938B50D46144620B9FFF7D9FFFFF7BF
:1058D000F0FFFEE700F00AF802F070F90CB14FF0AB
:1058E000FF3521462846BDE8344013E1DFF8742235
:1058F000936A03F11801704738B5C068C46824B9C9
:10590000FFF7BEFFFFF7D5FFFEE7FFF72CFFDFF83D
:105910005452286F40B900F0B1F800F012F838BFC7
:105920006A6500F0F2F802E004F11801284602F07E
:1059300045F900F00CF802D20120286632BD0020A3
:1059400032BDE26A686DDFF8203290427047A86A83
:10595000C16AE06A81427047DFF808124A6E02604D
:10596000096D41607047F8B504460D46502024B9D2
:1059700080F31188FFF79DFFFEE725B980F31188BA
:10598000FFF797FFFEE700F06FF9DFF8D801016D30
:1059900062682E688B1A16F1010F0ED0476ED4F88C
:1059A00000C0674501D091420BD2B34207D2F31A2F
:1059B0002B60416E2160006D6060002402E00020D9
:1059C0002860012400F069F92046F2BDDFF8941147
:1059D000012008667047000070B5414CDFF8845123
:1059E00011E000F041F9286AC668301D02F00CF998
:1059F000E86C401EE864686B401E686300F04DF977
:105A0000304600F009F8686B0028EAD121680229C5
:105A1000F9D3FFF749FFF6E710B5044694F85900AB
:105A200040B9206B02F067F82046BDE8104002F054
:105A300062B810BD0128F7D00228FAD0FFF720FF86
:105A4000FFF737FFFEE70C49C86A006810B94FF04E
:105A5000FF3203E0C86AC268D0684268CA6670470D
:105A6000DFF80011886D08B901207047086F08B988
:105A70000220704700207047884F0020201D02F050
:105A8000C3B838B50446002144B3DFF8D850A86A3B
:105A90005022844204D082F31188FFF70AFFFEE708
:105AA000206D20B982F31188FFF703FFFEE7E26A59
:105AB000E36C401E9A42206510D078B9FFF7DEFFF4
:105AC000E26CDFF8A430E262C2F13800A061696DD7
:105AD000914238BF6A6500F005F80121084632BDE1
