:020000040800F2
:10000000D0560020698E0008E98B0008EB8B0008B1
:10001000ED8B0008EF8B0008F18B0008000000005A
:10002000000000000000000000000000296B000834
:10003000F38B000800000000D16A0008793E000838
:100040009D8E0008A18E0008A58E0008A98E0008CC
:10005000AD8E0008B18E0008F58B0008FB8B000800
:10006000B58E0008B98E0008BD8E0008018C00080E
:10007000078C00080D8C0008C18E0008C58E000892
:10008000138C0008C98E0008CD8E0008D18E0008A0
:10009000D58E0008D98E0008DD8E0008E18E00089C
:1000A000E58E0008E98E0008ED8E0008F18E00084C
:1000B000F58E0008F98E0008FD8E0008198C0008E6
:1000C0001F8C0008018F0008058F0008098F0008A9
:1000D0000D8F0008258C00082B8C0008318C00083F
:1000E000118F0008158F0008198F00081D8F000858
:1000F000218F0008378C0008258F0008298F000801
:100100002D8F0008318F0008358F0008398F0008C7
:100110003D8C0008438C0008498C00084F8C000877
:100120003D8F0008558C00085B8C0008418F00084B
:10013000458F0008498F00084D8F0008518F000837
:10014000558F0008598F00085D8F0008618F0008E7
:10015000658F0008698F00086D8F0008618C0008AA
:10016000718F0008758F0008798F00087D8F000857
:10017000818F0008858F0008898F0008000000002B
:100180008D8F0008A98C0008F8B5040025D004F173
:100190003C05697821B900202870204601F074FAE6
:1001A00024216970206802685208520002602068A9
:1001B000016841F4004101602068026822F40042B5
:1001C000026001F02FFD01466068DFF85C2190427B
:1001D00005D2DFF85831994205D20120F2BDDFF88F
:1001E00050018142F9D32068DFF848314668B1FBFD
:1001F000F3F3B60943EA861646602668376A6068F4
:10020000904206D34FF4967043434FF47A70B3FB99
:10021000F0F35B1CBF0943EA87133362491E23686E
:10022000DE696768974206D27F0000F043F8042930
:1002300013D2042111E0A06820B907EB470700F0B2
:1002400039F805E01920474300F034F841F48041C3
:1002500008050CBF012141F40041DFF8E801064028
:100260000E43DE6122681368E169206A23F0C0034F
:100270000B43034313602268DFF8CC0193682169C4
:100280000340E0680B43034393602168CA68A36995
:100290006069120A034343EA0222CA6020680168C7
:1002A00041F0010101600020686020216970206335
:1002B000A870F2BDB1FBF7F1491CC1F30B01704707
:1002C000006841690A0644BF002101617047308D12
:1002D0007262411E3185708D411E7185704700909C
:1002E00031684A69009289690091009870473068C6
:1002F000016841F480710160704721F48061016000
:100300003068026842F40062026070470090216821
:100310004A69009289690091009870470022294635
:10032000304601F045B80000A186010080841E001F
:1003300000093D0040420F002DE9FC4700F088F81D
:1003400000F08CF85DD100F074F8002859D13878AD
:10035000012856D000F067F801D400F085F9414635
:10036000D6F800E00C9D0B98DDF828C0DEF8008080
:1003700028F40068CEF800804FF0210E87F801E0E5
:100380004FF0400887F802804FF0000EC7F804E0F5
:1003900000F035F900F0DBFE00282BD108E0716A8F
:1003A0000A780261706A411C7162308DFFF791FF1B
:1003B000308DA0B122462946304601F092F8A0B90E
:1003C000706A326801781161706A411C7162308D07
:1003D000411E00F019F8EBD589B20029DFD1224681
:1003E0002946304601F09DF830B17868042801D1E3
:1003F00000F06EFF012005E000F06AFF00F00CF84D
:1004000000E00220BDE8F6873185708D421E7285BE
:100410003068426953077047202078700021B97016
:100420000020387070470121397030680268D107A8
:1004300070470094192301220449304600F0B8BFE8
:10044000000000000030FFFF007CFFFF02001000F2
:100450000646884691469A4601F050BC06F13C0794
:1004600004467878202870472DE9FC47FFF7F0FF15
:10047000FFF7F4FF02D1FFF7DCFF002840F0838094
:100480003878012800F07F80FFF7CDFF01D400F01D
:10049000EBF84146D6F800E00C9D0B98DDF828C03B
:1004A000DEF8008028F40068CEF800804FF0220EBD
:1004B00087F801E04FF0400887F802804FF0000E07
:1004C000C7F804E000F09BF800F090FE00284FD140
:1004D000308D18B1012804D100F0AAF800F073F8AB
:1004E00017E0022806D130680168FFF706FF0020F8
:1004F000009001E000210091FFF7F2FE09E02246A2
:10050000294600F04CF8002832D100F03FF8FFF700
:10051000DEFE308D002833D0042824D20128EED00E
:100520000228DFF8588100942B460CD10022414666
:10053000FFF7F6FE00281BD100F081F8716A087001
:10054000706A421CE3E700224146FFF7E9FE0028FB
:100550000ED100F007FD2B4600F041F84146FFF7B1
:10056000DFFE28B9E8E72246294600F018F808B16E
:10057000012009E000F016F8CBD500F04FF8DDE7D8
:10058000FFF74AFF00E00220BDE8F6873068016906
:10059000706A0170716A4A1C7047224649463046AB
:1005A00000F0ECBF30680169706A0170716A308DCB
:1005B0004A1C401E72623085718D4A1E72853168F8
:1005C0004A6953077047009031684A6900928B6905
:1005D000009300980A6842F400720A60704730681D
:1005E0000169706A0170716A308D4A1C411E726225
:1005F00031850022708D411E718500947047C6F8C8
:1006000024C070855346708D30854A46DFF89C00C3
:10061000F0620194009530467047000080B20328D4
:1006200003D1086820F48060086031680869704769
:100630003068016821F480610160002070473068F3
:10064000016841F40071016030680169706A0170ED
:10065000716A308D4A1C411E72623185708D411E57
:100660007185326810697047026842F001020260C9
:1006700070470098401E00900098704704000100E9
:1006800000980A6842F400720A60704700224FF036
:100690000111204600F08CBE416841F48051416058
:1006A0007047016841F48061016070470000FFFFFE
:1006B0002DE9FC41044604F13C052268DFF8DC8B9F
:1006C0005168D4F82CE0A8786B780027102818BF60
:1006D000402840F03C829769D2F814C05FEACC769B
:1006E00005D4BEF52A0F18BFBEF12A4F47D05FEAE6
:1006F000CC7645D58E0543D5E06AB0F52A0F08BF04
:10070000012104D0E06AB0F12A4F01D10821E16251
:10071000A878402809D168690028A8681ABF40F065
:100720000100C0B200F0FE0028E02069B0F5804F63
:1007300016D168782128A8680EBF00F0FE0040F0AE
:100740000100C0B21061606B00281CBFC06B0028A4
:100750002AD1A06B00281CBFC06B00280FD023E05B
:10076000686920B900F0F1FA40F0F00006E068692D
:10077000012804D100F0E9FA40F0F1001061E2E252
:100780005FEA0C7615D58E0513D5A868C0B2106146
:10079000606B00281CBFC06B002805D1A06B00282F
:1007A0001CBFC06B0028EAD02068416841F400619A
:1007B00019E15FEA8C7600D58E0540F19780AB7821
:1007C000E16A276B6878222840F0888068690028F1
:1007D00008BF402B04D1002100F0D7FA009AB2E202
:1007E0006869002804BF2069B0F5404F08D100F0C7
:1007F000D2FA41F4807111606869401C6861A2E21C
:10080000608D28B900F0C7FA41F40071116062E010
:10081000608D012835D1414515D1116821F48061E1
:10082000116021684868020506D5086820F48060D8
:100830000860002100914CE0002200924B69009377
:100840008A6900920DE0082918BF202903D0122FD1
:100850000AD101290DD000F07EFA0021009100F0AC
:10086000B3FAFFF70DFF36E004291CBF0229102957
:1008700002D000F070FA2AE0116841F48061116042
:1008800025E0638D022B0FD104291CBF02291029FA
:1008900005D000F060FA2068FFF733FD08E010682B
:1008A00040F48060106003E0136843F480631360D9
:1008B0002068426813050AD5414518BF012904D0B4
:1008C00008291CBF1029202901D1FFF7E5FE0020CF
:1008D0000090FFF71CFD0021696134E200230093C2
:1008E000516900919269009200992CE27F075ED5D0
:1008F00056683705F9D45FEA0C662DD54F052BD520
:100900005FEA4C7628D46978AB78E76A208D0028B6
:1009100008BF212913D1082F1CBF202F474504D021
:1009200000F023FA0022AA702EE000F07AFA31D10A
:100930000021A9702046BDE8F64101F0E5B9212962
:1009400003D0402B08BF2229CFD1608D00284ED084
:10095000A878402827D0C2E15FEA4C77C5D5890541
:10096000C3D5212B1DD1E16A687821283CD1608D47
:1009700008B100F0B4B908291CBF2029414506D0B0
:1009800000F0F3F90020A8702021697004E000F065
:1009900048FACDD00021A9702046BDE8F64101F00B
:1009A000B4B9402820D12046BDE8F641E0E25068C5
:1009B000030519D45FEA4C6073D54B0571D55FEA26
:1009C0004C706ED4697822290ED1E36A608D0428B8
:1009D0000BD3106900F0EFF9608D032804D1206873
:1009E000416821F480614160ADE1E16A022955D09E
:1009F000012818BF002851D10020DFF8AC19009061
:100A000019200968B1FBF0F04FF47A77B0FBF7F7E3
:100A100007EB870700972146FFF72BFED8B1146834
:100A2000A005F9D40C46116821F48061116000F032
:100A300079FB00F0E3F96262202200F0C1F96A70EC
:100A4000A878402822D10021A97021632046BDE862
:100A5000F64101F05BB9686840F0200068605068BA
:100A600020F4E06050600A6810694A6A1070486AB1
:100A7000431C4B622023488D421E4A856B70002028
:100A8000A8700846BDE8F64101F041B90020082BE6
:100A900018BF202BA87053D0122052E000F060F94C
:100AA00051E15FEA4C70FBD58905F9D5E06A618DAB
:100AB000042904D100F054F9216808693CE1618DF2
:100AC00003290CD15168042821F4806118BF022841
:100AD000516001D000F099F900F090F930E1618D9A
:100AE000022940F02881012818BF10280CD00428C2
:100AF00018BF022803D0116841F4007107E01368A1
:100B000043F48063136003E0116821F48061116095
:100B10002268116900F030F92368196900F02CF996
:100B200021684A6822F440724A6020216970AA78DC
:100B3000402A88D00021082818BF2028A970ABD1EE
:100B4000002020632046BDE8F64101F0E1B8686866
:100B500000B997695069860722D58E0520D5686847
:100B600000B197696878002100F02800282811D189
:100B700000F0F6F8780758BF0121380654BFE26844
:100B8000A2690020287002B02046BDE8F04192B270
:100B900001F0BFB800F0F9F80021009A2970D2E006
:100BA000C70671D58E056FD56F78506820F4E06068
:100BB000506000210091206841690091FFF754FDC9
:100BC000009800F022F921684868020526D5222FF6
:100BD00018BF2A2F0FF205760FD0606B00F0FAF8DD
:100BE000606B01F06DFA012818D0606B0665606BD0
:100BF00001F074F990B1606B0EE0A06B00F0EAF8C0
:100C0000A06B01F05DFA012808D0A06B0665A06B0F
:100C100001F064F910B1A06B016D8847608D88B157
:100C2000206841694A0701D500F0C4F8206841698D
:100C30004A0601D500F0BEF8608D18B1686840F032
:100C400004006860686818B12046BDE8F641E7E135
:100C50002A2F05D1206328216970204601F05CFA13
:100C60006878282808D1C4F82C8000F0D4F82046F1
:100C7000BDE8F64101F051BA206B222818BF222F9F
:100C800061D100F0C8F84BE0212B18BF292B2DD1E2
:100C900003061DD54B051BD5430719D46978608D14
:100CA000002850D0606A03781361606A421C626257
:100CB00000F07AF808BF292945D100F099F82120E1
:100CC0002063282169702046BDE8F64101F026BA6C
:100CD000400738D5890536D5608D002833D0606A45
:100CE00001781161606A411C61622AE043061CD5EB
:100CF0004B051AD5430718D46978608D18B310696D
:100D0000626A1070606A431C636200F04DF808BFAD
:100D10002A2918D100F06CF822202063282169705C
:100D20002046BDE8F64101F0F7B940070BD589052B
:100D300009D5608D38B11069616A0870606A421C1B
:100D4000626200F03DF8BDE8F381A8680004C00DC0
:100D500000F006007047106820F480601060704753
:100D6000506820F4806050607047506820F4E06064
:100D70005060112121637047626A1170616A4B1CD7
:100D80006362618D4A1E62857047009153690093CA
:100D90009169009170470021009153690093916916
:100DA0000091009811687047608D421E6285608DC9
:100DB000002870470069616A0870606A421C6262BC
:100DC000608D411E6185704721684A6900928B6978
:100DD00000937047026853686385608D18B1686836
:100DE00040F004006860486820F400604860704784
:100DF0002068416821F48061416070472068016982
:100E0000606A0170616A4A1C70472068016821F4B9
:100E10008061016070470020206320216970A87004
:100E20007047506820F4E06050602068016841F429
:100E3000007101600020206320216970A87840289B
:100E40007047F8B5054605F13D0029684E694F68C1
:100E500042780024F30505D5FB0503D56FF48073B4
:100E600001244B61B10507D5FB0505D52B686FF44F
:100E7000007144F002045961710560D5FB055ED52F
:100E80006B8D90F800C0D5F830E0202A08BF002B09
:100E90006FF4806148D1BCF1210F18BFBCF1290F5C
:100EA00005D0BCF1280F08BFBEF1210F3CD102785C
:100EB000EB6ADFF8E8C3082B14BF202B282A16D1D1
:100EC000C5F82CC02A68536823F4E06353602A688D
:100ED0005161202229680B6823F480630B60002194
:100EE000296302704170284601F017F927E0212A92
:100EF00017D1C5F82CC02A6320230370002242704A
:100F00002868426822F4E0624260286841612868EB
:100F100000F029F82846FFF7D3F9284601F0FEF83B
:100F20000DE0286841610AE02B68102A18BF402AAA
:100F3000596144F0040402D1286800F0CAF9300570
:100F400007D5F90505D529686FF4006044F0080459
:100F5000486134B1286C04432C642846BDE8F24053
:100F60005EE0F1BD3068016821F480610160704786
:100F700010B500F13D0300F148021C78916871B989
:100F800000685168012905D11368DBB203619068DC
:100F9000801C19E011680904090E016112E09168D2
:100FA000012907D113680068DBB203619168491C0D
:100FB000916010BD916802292DD1222C06D10068C4
:100FC000FFF796F99068401C906010BD418D61B1AB
:100FD000212C0AD1416A03680A781A61416A4A1CC5
:100FE0004262418D4A1E428510BD418D002908BFD5
:100FF000212C14D101684A6822F4E0624A60016839
:10100000FFF73FFB0021016320221A705970BDE8F1
:10101000104000F079BEBDE81040FFF751B910BD97
:1010200038B5044604F13D0528786978102914BFC5
:101030004029222804D121680A6822F400620A604B
:1010400000F02801282903D10020206329700BE03B
:10105000226851680A0505D4602803D02020287032
:101060000021697000202063206841680A0523D5AB
:10107000416821F400614160606B0FF2612190F8DA
:101080003520012A09D00165606B00F027FF002898
:1010900025D000F054F8606B0BE0A06B0165A06BED
:1010A00000F01CFFD8B1206800F032F800F047F8DB
:1010B000A06B016D884712E02A78602A0AD12021AE
:1010C00029700022226400F023F800F031F801F0CA
:1010D00026F804E000F01CF8204600F018FE206C12
:1010E00010F00F0F01D000F01DF82878216C4A078E
:1010F0000DD528280BD16948E0620021216320200A
:10110000287069702046BDE8324001F006B831BD54
:1011100041694A0605D50069616A0870606A421C27
:10112000626270472068416821F4E0614160704765
:10113000206801684908490001602046704720681E
:1011400001684908490001602020287070472DE996
:10115000F84304462068DDF82080099F894601682D
:1011600041F4807115461E46016000974346FFF723
:101170008DFA40B120680168CA0544BF4FF4007081
:101180002064032023E0206809F0FE0101613B4652
:10119000424600F01EF8A0B90090216800F084F8E3
:1011A00000F022F840B9012E0DD02168280A08610C
:1011B0003A4600F018F830B1206C042801D100F054
:1011C0000CF8012003E02068EDB205610020BDE8C5
:1011D000F283764920461FE100002068016841F44F
:1011E000007101607047414620467AE12DE9F84FD1
:1011F00005462868DDF828800B9F0C46FFF751FA5A
:1012000016462868016841F480719946016000F033
:1012100058F800284FF4007A2CD12968DFF88CB1F7
:1012200004F0FE00086100F047F8002832D1009079
:10123000296800F039F800F035F870B9B9F1010FFC
:1012400005D02968300A086100F02AF828B9286812
:10125000F6B2066100F024F830B1286C042819D1E8
:10126000286800F036F815E02868FFF741F800F02C
:1012700028F838B128680168CA0548BFC5F840A0F9
:10128000032008E0286844F00104E4B2046100F09F
:1012900013F800B10120BDE8F28F00000000FFFF4D
:1012A0003A46414628461CE14A6900923A46896915
:1012B00000914146009870473B46424659462846B1
:1012C000AAE00097434600224FF0011128466FE044
:1012D0003068016841F40071016070477CB50021FD
:1012E00000911925816B304801F13D024FF47A7667
:1012F00013780468B4FBF5F5B5FBF6F623204643F6
:101300000096009838B10098401E00900C68206844
:101310008505F6D403E0086C40F020000864486BB3
:1013200008B10024C463886B08B10024C463086852
:10133000046824F48064046000204885486B08B188
:1013400000240465886B08B10024046508680468FB
:101350006408640004601078602809D120231370A9
:10136000002454700C640846BDE8764000F0D7BEF7
:1013700003F02803282B0ED10868036843F001030B
:10138000036028230868046844F480640460002033
:101390000863137003E02020107000245470084686
:1013A000BDE8764000F0B3BC180000200200010048
:1013B0002DE9F8430F46089C0646904699463D0C99
:1013C0003068E9B201290CBF4069806900F06FF80C
:1013D0000CBF0120002040451CD119F1010FEFD0B6
:1013E00000F08CFC001B814502D3B9F1000FE7D15E
:1013F0003068E9B201290CBF4069806900F057F8F4
:101400000CBF012000204045DAD100F05CF801203B
:10141000BDE8F2830020FBE72DE9F0410F460646C8
:10142000144698463D0CE8B2012837D1306841692E
:10143000394089B2B8B2814237D0306841694A0533
:1014400010D500F039F832685061002106F13C00F7
:101450003163202242708170426842F0040242608F
:10146000017014E014F1010FDDD000F047FCA0EB97
:101470000800844201D3002CD5D1E9B2306801299B
:1014800008D1406900F013F8D0D000F01CF801201A
:10149000BDE8F081806900F00AF8F6D13068816912
:1014A000394089B2B8B28142C7D10020F0E7384054
:1014B00080B2B9B288427047016841F4007101609E
:1014C0006FF48060704700203063202106F13C00FB
:1014D000002241708270416841F020014160027039
:1014E000704770B505460C461646286841690806DF
:1014F00015D4284600F06DF878B914F1010FF4D036
:1015000000F0FCFB801B844201D3002CEDD1286845
:1015100041690806E9D400F024F8012070BD0020DC
:1015200070BD70B505460C461646286841694807E7
:1015300015D4284600F04DF878B914F1010FF4D015
:1015400000F0DCFB801B844201D3002CEDD1286825
:1015500041694807E9D400F004F8012070BD00207B
:1015600070BD002105F13C0029632022427081708A
:10157000426842F0200242600170704770B5054633
:101580000C461646286841694A0620D44169CA06B5
:101590000FD56FF01001416100202863202105F173
:1015A0003C0000224170827041684160027001205D
:1015B00070BD00F0A3FB801B844201D3002CE1D15D
:1015C000286841694806DDD4FFF7CBFFEFE700202C
:1015D00070BD01684A6953050FD56FF480624A6196
:1015E000002101633C30202242708170426842F049
:1015F000040242600170012070470020704730B43F
:10160000002513E050F8042BD30744BFA9F10103D0
:101610009A18091F042942F8045BFAD213468C0772
:1016200044BF15809B1CC90748BF1D7050F8041BA0
:101630000029E7D130BC704780B50020009000221F
:10164000DFF87804416841F480414160416801F469
:1016500080410091009900920F21036843F080536C
:101660000360006800F08050009000986FF0010067
:1016700000F070FD00220521512000F06BFDBDE857
:101680000240512000F084BD10B586B004461422FB
:10169000002101A800F092FD2168DFF824048142B6
:1016A00036D10022DFF81C4400921222206840F05C
:1016B00002002060216801F002010091C021009821
:1016C000DFF8040401910292002103910322042116
:1016D0000591049201A900F07BFD002000900022FA
:1016E000216941F4001121610521206900F40010F5
:1016F000009000981F2000F02DFD1F2000F048FDF5
:1017000000220521202000F025FD202000F040FDD2
:1017100006B010BD80B50068DFF8B023DFF89C1379
:10172000904211D1002000900A6842F010020A6035
:101730000022086800F01000009005210098362073
:1017400000F008FD362014E0DFF88423904214D125
:10175000002000900A6842F020020A600022086817
:1017600000F02000009005210098372000F0F2FCE6
:101770003720BDE8024000F00BBD01BD2DE9F0416E
:1017800086B0044614220021684600F017FDD4F804
:1017900000C0DFF84023DFF84053DFF84003DFF8F4
:1017A000243394454FF480664FF000684FF4406155
:1017B00033D14FF0000ECDF814E01A6942F4002244
:1017C0001A611A6902F400220592059ACDF814E014
:1017D00002221F6847F004071F601B68DFF80073D0
:1017E00003F004030593059B019200910322082353
:1017F000CDF808E003920493694600F0E9FC05F196
:10180000300000F04BF908B101F09EF800F019F932
:10181000342000F09FFC34200EE1DFF8C82294450C
:101820004AD1002105911A69DFF8BC7242F4801296
:101830001A610022196901F4801105910599059238
:10184000196841F004011960196801F0040105915B
:10185000059905924FF48052196841F0080119600A
:10186000196801F0080100F0FAF802210191002244
:1018700002920420032100900391082204926946F9
:101880009A4800F0A5FC3D60C7F804800020B860CD
:10189000F8603E617861B861F86138627862384614
:1018A00000F038FA08B101F04FF800F0CAF835201E
:1018B00000F050FC3520BFE0DFF834E28D4F8E4A57
:1018C000F4452DD100200590596941F0100159616E
:1018D0000021586900F010000590059805914FF41B
:1018E000C0611D6845F001051D601868834D00F05A
:1018F000C4F807F11800286000F0A8F8C5F80480C3
:101900002E61284600F006FA08B101F01DF8E563E3
:10191000AC6300220521252000F01CFC25208BE073
:10192000DFF8DCE1F44523D1002005901969754FFB
:1019300041F4003119610021186900F4003005906C
:10194000059805910C21186840F00100186018688E
:1019500000F093F805F1780000F0A0F808B100F06D
:10196000F3FF00F06EF8262000F0F4FB262063E081
:10197000654A944531D1002005901A69634F42F4BD
:1019800080221A610022186900F4802005900598D1
:101990000592186840F0020018601A684A4802F080
:1019A00002020592059A0091002202210191029201
:1019B0000321039107220492694600F009FC05F116
:1019C000180000F06BF808B100F0BEFF00F039F825
:1019D000272000F0BFFB27202EE04D498C452DD15C
:1019E00000220592596941F020015961596901F0BD
:1019F0002001059105990592C0221D6845F0040556
:101A00001D601968434D01F0040100F028F82F60B3
:101A10004FF02060686000F019F82E61284600F051
:101A200079F908B100F090FFE563AC6300220A2168
:101A3000472000F08FFB472000F0AAFB06B0BDE86E
:101A4000F081E763BC6300220A2170470021A9608E
:101A5000E9606961A961E96129626962704705917C
:101A60000223059900920193002202920323082287
:101A700003930492694600F0ABBB00F001000590AF
:101A8000022305980091019300210291032307216D
:101A9000049103936946104600F09ABB3860C7F87A
:101AA00004800021B960F9603E617961B961F96132
:101AB00039627962384600F02DB9000040380240A2
:101AC0000054004030380240000402400010004042
:101AD00000140040004C004010600240000802402A
:101AE000544E002000500040544F0020000C024093
:101AF000001001402864024000000240B44F002062
:101B00000044004014500020004800407450002061
:101B100000140140D45000202DE9F04104000F468C
:101B200054D0574E306800F00700B84202D200F09F
:101B300073F84BD12068534D810712D5400703D568
:101B4000A96841F4E051A9602078010703D5A8688D
:101B500040F46040A860A968A06821F0F00101434A
:101B6000A9602178C80729D56068012802D12968B1
:101B70008A0305E0022818BF032803D129688A01D7
:101B800003D423E029688A0720D5A968890840EA98
:101B90008100A86000F0B2F88046A868616800F093
:101BA0000C00B0EB810F09D000F0A8F8A0EB080002
:101BB00041F289318842F0D303202BE0306800F0F5
:101BC0000700874204D200F027F801D0012021E06D
:101BD0002078410705D5AA68E06822F4E052024364
:101BE000AA602178080706D5A968206921F4604118
:101BF00041EAC001A96000F051F8AA682249234BCC
:101C0000C2F30312895CC84018602148006800F0E4
:101C10009DFE0020BDE8F0813770316801F00701BA
:101C2000B942704719481B4A006813681A49C3F340
:101C3000822206E01548174A006813681649C3F364
:101C40004232895CC840704710B50F220260114AC9
:101C5000136803F003034360146804F0F004846025
:101C6000136803F4E053C3601268D20802F4E05230
:101C700002610348026802F007020A6010BD00001A
:101C8000003C024000380240EC8D000818000020A3
:101C90001400002008380240948E000830B5144C1F
:101CA000606800F00C00042802D0082802D01DE073
:101CB000104830BD226820680023410202F03F0234
:101CC00004D525680B49C5F3881003E020680A494C
:101CD000C0F38810A1FB000100F088FE2168C1F369
:101CE0000141491C4900B0FBF1F030BD024830BD54
:101CF0000438024040787D010024F4000148406827
:101D0000704700BF0C000020704770477047704755
:101D10007047704770B50446FFF7F0FF06460CB9F0
:101D2000012070BD04F13405022068700021297083
:101D30002068026852085200026022681068C107D9
:101D40000AD5FFF7DBFF801B0628F6D32020286288
:101D500003216970032070BD1368DFF82C036168EC
:101D60000340A0680B43E168034320690B436169AA
:101D70000343A0690B43E1690343206A0B43616A93
:101D80000343042903D1E16A206B01430B43136031
:101D900023685A69606AD208042840EAC2020AD15C
:101DA000A66AE16A324331B1A06988B9002E18BF32
:101DB000022E1FD016D35A61204600F095F9A96A69
:101DC0003F228A408260002028620121697070BD34
:101DD000B0F5005F0AD1032EEDD8DFE806F00D0B59
:101DE0000D03E8E7B1F1C07FE5D105E0022E03D98C
:101DF000F61EE0D1C801DED54021296201206870BD
:101E000070BDF8B5044604F1340600253078776AD1
:101E1000012801D10220F2BD012030707078012824
:101E20001CD1022070703562204600F04CF9B06A77
:101E30003F2101FA00F0B8602068016841F0160106
:101E40000160F06820B12068016841F0080101607C
:101E50002068016841F00101016001E03570022550
:101E60002846F2BDF8B5044604F134056E6AFFF762
:101E700045FF07466878022805D0802129620020A6
:101E800028700120F2BD2068016821F01601016070
:101E900000F003F9E868002804BF6869002801D051
:101EA00000F007F900F0FFF820680168CA070CD5B8
:101EB000FFF724FFC01B0628F6D320202862032149
:101EC0006970002028700320F2BDA86A3F2181407C
:101ED000B1600020012169702870F2BD90F83510C2
:101EE000022903D08022426501207047052180F835
:101EF00035100068026852085200026000207047E6
:101F00002DE9FC41044604F1340600205F490090AD
:101F10004FF41650776A0A683D68B2FBF0F8B06A71
:101F2000082100F0B6F80ED02068026853070AD5E1
:101F3000026822F004020260B06A8140B960316A2E
:101F400041F001013162B06A25FA00F1CA070BD5F0
:101F500021684A69110607D5012202FA00F0B8602B
:101F6000306A40F002003062042100F091F808D09D
:101F700021680A68930704D5B860306A40F004000D
:101F80003062102100F084F81BD021680A68130722
:101F900017D5B860206801684A0307D500680103B7
:101FA0000BD5716969B1204688470AE00168CA0506
:101FB00003D4016821F008010160F16809B12046ED
:101FC0008847B06A202100F064F83FD021680A6891
:101FD000D3063BD5B8602068717805291CD102680A
:101FE00022F01602026000F058F8F068002804BFE2
:101FF0007069002801D000F05CF83F22B06A82408E
:10200000BA60012171700020F1693070002939D067
:102010002046BDE8FC41084701684A0307D500682F
:1020200001030FD4316989B1204688470EE0016869
:10203000CA0507D4016821F0100101600120707009
:1020400000213170B16809B120468847306AC8B1B3
:10205000306AC10710D50520707000F024F8009890
:10206000401C8045009003D320680168CA07F6D45D
:102070000120707000213170B16919B12046BDE8AE
:10208000FC410847BDE8F3813F8010F018000020B4
:10209000B06A01FA00F0054270472068416921F0FA
:1020A000800141617047206801684908490001606A
:1020B00070472068016821F0080101607047000046
:1020C00090F83500704730B50468256825F4802500
:1020D000256063608068402802D1A260E16030BD65
:1020E000A160E26030BD000030B5016808A401F0D5
:1020F000FF02103A1823B2FBF3F2890A8902A55CA9
:10210000C565042A28BF091D8165084630BD000049
:10211000000610160006101670477047704770478B
:102120000901020002D42048815470471F4B02F07D
:102130000F021A4402F8041C70471D4B19684FF631
:10214000FF020002114000F4E0600843194908430F
:102150001860704770B5164B1C68C4F30223012445
:10216000C3F10705052D2EBF0F2504FA05F56D1ED9
:102170001E1D072E34BF0023DB1E2940994004FAA0
:1021800003F3BDE870405B1E1A401143C8E700002E
:10219000010007D4012200F01F01074B8A404009CB
:1021A00043F820207047000000E400E018ED00E054
:1021B0000CED00E00000FA0500E100E010B5044677
:1021C00010460A460146204600F098FC204610BD05
:1021D0002DE9F84F0D4600267149724A0F23044637
:1021E00001202F68B04000EA0708804540F0CA800F
:1021F0004FEA460C032707FA0CF76FEA070E6F68E1
:1022000007F00309B9F1010F1CBF07F00307022F04
:1022100012D1A768D5F80C900EEA070709FA0CF955
:1022200049EA0707A760676827EA00006F68C7F3F5
:102230000017B74038436060B0002F7907F00307FC
:10224000032F21D0E768D5F808900EEA070709FAAE
:102250000CF949EA0707E7602F7907F00307022F17
:1022600012D1F70804EB870700F01C09D7F820A06B
:1022700003FA09FB2AEA0B0AD5F810B00BFA09F9A0
:1022800049EA0A09C7F8209027680EEA070E2F7955
:1022900007F0030707FA0CF747EA0E0727606F6895
:1022A00017F4403F6ED0002700974FEA960C17684E
:1022B00047F48047176000F00C00176807F4804768
:1022C000009703FA00FE009F374F57F82C7027EA5B
:1022D0000E0E364FBC4208BF002722D0344FBC42FE
:1022E00008BF01271DD0334FBC4208BF022718D0BA
:1022F000314FBC4208BF032713D0304FBC4208BF48
:1023000004270ED02E4FBC4208BF052709D02D4F01
:10231000BC4208BF062704D02B4FBC420CBF072786
:10232000082707FA00F0204F40EA0E0047F82C007B
:102330006FEA08008F6800EA070C6F68FF0248BF69
:1023400048EA0C0CC1F808C0CF6800EA070C6F68B7
:10235000BF0248BF48EA0C0CC1F80CC04F6800EA45
:10236000070C6F68BF0348BF48EA0C0CC1F804C0F3
:102370000F6800EA070C6868C00348BF48EA0C0C05
:10238000C1F800C0761C0F2E7FF62AAFBDE8F18F92
:102390000E4A136803421CBF106000F019B8704762
:1023A000003C01404438024008380140000002402F
:1023B0000004024000080240000C024000100240ED
:1023C0000014024000180240001C0240143C01406E
:1023D0007047B1F5807F02D34FF0FF307047017036
:1023E000012070470078401E8041C043C00F7047F5
:1023F00010B50446DFF8F4142068884208BF00F0E6
:10240000EDFB2068DFF8E814884208BF00F0D7FB36
:102410002068DFF8E014884208BF00F01AFC20684A
:10242000DFF8D41488420CD1DFF8D044012204F143
:10243000A801204600F0FEFDA06C016821F0080113
:10244000016010BD2DE9F84386B001F0A1F900F05C
:102450008FF9142101A801F0B5F90020DFF8A0449C
:102460000090216841F0040121600021206800F003
:10247000040000F078F942F080022260206800F049
:10248000800000F070F942F001022260206800F044
:10249000010000F068F942F010022260206800F0AC
:1024A000100000F060F942F002022260206800F0A3
:1024B00002000090009800910321226842F0080277
:1024C00022604FF44412206800F008000090009849
:1024D000DFF83004019102920021039101A9FFF776
:1024E00077FE4FF4A840002101900291039101A9C9
:1024F000DFF81404FFF76CFE002205210620FFF729
:1025000029FE0620FFF744FE002205210720FFF7E1
:1025100021FE0720FFF73CFE00200090216841F4D7
:10252000001121600021206800F400100090009844
:1025300000910521226842F4800222600022206876
:1025400000F48000009000980B20FFF703FE0B20A2
:10255000FFF71EFE002205210C20FFF7FBFD0C20DB
:10256000FFF716FE002205210D20FFF7F3FD0D20D9
:10257000FFF70EFE002205211020FFF7EBFD1020D3
:10258000FFF706FE00220A213920FFF7E3FD39207C
:10259000FFF7FEFD002205213A20FFF7DBFD3A2080
:1025A000FFF7F6FDD949DA4CDA4861602060002275
:1025B0004FF48041A260E26021616261A261E26148
:1025C00022622046FDF7E0FD08B100F0BDF90021D0
:1025D0000022CDE9001204F59675CF49A964A72021
:1025E000E8642A6540F2E7366E658020286604F5C7
:1025F000BA78404601F0EAF808B100F0A5F90021E8
:10260000009101914046694601F054FA08B100F08A
:102610009BF900210022CDE90012A72004F5DE7904
:10262000BE49C9F80400C9F800108020C9F8180094
:10263000C9F80820C9F80C60484601F0C7F808B18D
:1026400000F082F90021009101914846694601F0AD
:1026500031FA08B100F078F9A848A74901604FF4B1
:10266000E13600F075F808B100F06EF9A048606539
:10267000A6650C200021A066E16521666166E16621
:10268000216704F1540000F0C5FB08B100F05CF9CB
:1026900004F19C07A24838607E600021B960F960AF
:1026A00039610C207861B961F961384600F0B2FBFC
:1026B00008B100F049F99B489B49016000F048F8D7
:1026C00008B100F041F98948B864FE640021396519
:1026D0007965B9650C20F8653966796604F1E4001E
:1026E00000F098FB08B100F02FF9824828606E6076
:1026F0000C2000216861A960E9602961A961E96194
:10270000284600F087FB08B100F01EF9404601F0B2
:102710006AF8484601F067F8384601F044FA01F0DB
:102720003FFB01F0B6FB814C0FF2E5002246002191
:1027300001F0D9FBC9F8480004F1240200210FF28E
:10274000711001F0D0FBC9F84C0001F0B1FBFEE7BD
:10275000466000220C218260C26002614161826198
:10276000C26100F057BB009000980091226870474A
:1027700080B592B0302106A801F024F8142101A8F8
:1027800001F020F8002000906948016841F0805174
:1027900001600021006800F08050009000986548BA
:1027A00000910221026842F4804202600122006826
:1027B00000F48040009000980691099210210A913F
:1027C000022200210C920D910822A8210E920F9155
:1027D000022204211092119106A801F0EDFB08B12C
:1027E00072B6FEE702210291002203920F204FF4FD
:1027F000A051019004914FF480520592052101A847
:10280000FFF78AF908B172B6FEE713B000BD000009
:1028100070B500F00BFA00F09FF94248464C474D66
:10282000474E01F057FD012001F062FD012001F04B
:1028300083FD012001F08EFD022001F059FD0220F0
:1028400001F07AFD022001F085FD01F0E1FD01F0CB
:1028500014FE01F091FE0223B21D03210A2001F0B3
:1028600063FA0323324600210A2001F043FAB5F946
:1028700014104FF4805000F0A1FAB5F942104FF453
:10288000885000F09BFAB4F928104FF4B05000F0D3
:1028900095FAB4F92A104FF4B85000F08FFA68781E
:1028A000012808BF01F08FFE012001F068FBD2E78C
:1028B00080B501F093FF02F032F8012001F05FFBD8
:1028C000F7E710B5044614492068884204D101F0A6
:1028D000D8FD1A49A1F8420020681A49884203D15C
:1028E000BDE8104002F012BB10BD000000480040DF
:1028F0000050004000140140004C00400C4E0020ED
:10290000303802400000024000100240801A0600E9
:10291000D44A002000540040001000400014004041
:10292000001001403451002000440040248D000874
:10293000403802400070004004520020B84500209A
:10294000B85200200020004072B6FEE778B587B08C
:102950000446002000902048016841F48071016025
:1029600001A9006800F48070009002A8009AFFF7A7
:102970006BF9059810B9FFF755F902E0FFF752F926
:102980004000164D1649174B2960B0FBF3F0401E6E
:1029900040F2E73268600021EA602961A960A9611C
:1029A000284600F013FF060012D1284600F01BFF56
:1029B00006000DD12D20FFF7EBFB102C07D20022D3
:1029C00021462D20FFF7C6FB0748046000E00126E2
:1029D000304608B070BD0000403802407C510020F5
:1029E0000020004040420F0014000020D3BBD9B1AA
:1029F000B2F5803F5BD2022A1ED98C46B1FBF2F1C0
:102A000002FB11C31B0443EA1043B3FBF2FC02FBBD
:102A10001C3380B240EA0343B3FBF2F002FB1032F6
:102A200040EA0C4000237047022A05D98446B0FBD7
:102A3000F2F002FB10C270474AB105D100F001026A
:102A400049085FEA3000704700220023704702F017
:102A500065BA0B000200002100207047F7D3002266
:102A600000237047904271EB030CF2D370B5B1FABA
:102A700081F4B3FA83F52C1BA340C4F1200532FA8C
:102A800005F63343A2405FF00046E64002E05B08F3
:102A90005FEA3202841A71EB030524BF20462946FF
:102AA0007641F4D302000B003000002170BD70B5F8
:102AB000B1FA81F4B2FA82F5C4F120046419B4F1D8
:102AC0002006DAD3B2405FF00044F440002502E073
:102AD00052085FEA3303C61A71EB020E24BF304678
:102AE000714664416D41F3D302000B0020002900C0
:102AF00070BD0268531C0360117070474018491C78
:102B00001CBFB1F1010100F8012DF9D170472E0071
:102B100010B5017800220023442905D1447A817A36
:102B20000A2C04D00A2911D04FF0FF3010BD4429DF
:102B30000CD1042102F0F4F9F6E7A1F130040A2CDB
:102B400003D20A2404FB0212303A5B1CC15C002948
:102B5000F3D110B210BD00007FB5684630A1284CFB
:102B6000284D294E0A2202F0DFF9684602F0E8F902
:102B700082B264236946204600F089F9684602F073
:102B8000DFF982B264236946284600F080F91422F6
:102B90003146204600F04EFA1C4800F00AF8142294
:102BA00006F11401284600F045FA194800F001F832
:102BB0007FBD0068016821F008010160704710B511
:102BC000114C0F481422214600F034FA0F4900F04E
:102BD00021F82046FFF79CFF208510BD10B50A4C58
:102BE0000848142204F1140100F024FA084900F006
:102BF00011F804F11400FFF78BFF608510BD000091
:102C0000284B0020B84B002004520020544F0020D5
:102C1000745000200868026822F0080202607047C1
:102C2000694641434D3A20320A00000080B509222E
:102C3000DFF8C011DFF8C00100F0FCF900F001F886
:102C400001BDDFF8B8110868026822F008020260CE
:102C5000704710B5DFF8A841DFF89C01092204F1A4
:102C6000140100F0E7F9FFF7ECFF207E382806D1C9
:102C7000207F022807BF0121217000202070217EC3
:102C8000392906D1207F022807BF01216170002069
:102C90006070207E302806D1207F022807BF0121E6
:102CA000A1700020A070207E312806D1207F02284C
:102CB00007BF0121217100202071207E322806D11A
:102CC000207F022807BF0121E1700020E070207EF4
:102CD000332806D1207F022807BF0121617100201F
:102CE0006071207E342806D1207F022807BF012191
:102CF000A1710020A071207E352806D1207F0228F6
:102D000007BF0121217200202072207E362806D1C3
:102D1000207F022807BF0121E1710020E071207EA1
:102D2000372806D1207F022807BF012161720020C9
:102D30006072207E242806D1207F022807BF01214F
:102D4000E1720020E072207E252806D1207F022833
:102D500007BF0121A1720020A072207E272806D182
:102D6000207F022807BF0121E1730020E073207E4D
:102D7000262806D1207F022807BF0121A173002049
:102D8000A073207E28280BD1207F022802D1E07C6E
:102D9000401CE074E07C02280FDB0021E17410BDD0
:102DA00029280AD1207F022802D1A07C401CA074CF
:102DB000A07C0228A4BF0021A17410BD1CB55A2319
:102DC0008DF80030A524052300F01CF88DF80500CF
:102DD0000B128DF806308DF8071082248DF8034011
:102DE0006423082200F001F813BD6946024800F090
:102DF0004EB800008C520020004C0020D45000201F
:102E0000785200208DF802308DF80140030A8DF8C9
:102E10000430704738B5040001D1012032BD00F004
:102E200019F808B900F01AF800F01DF800F025F8BC
:102E3000FFE7416100F001F832BD2068C16841F44C
:102E40000051C1600020686020216970A9700021D4
:102E50006163704704F1400568787047002129706C
:102E60002046FEF78BBC242068702068C16821F4DE
:102E70000051C160204600F020BC2068016921F4A7
:102E8000904101612068416921F02A0170472DE9D4
:102E9000FC4106460D4696F84100202814461F4680
:102EA00040D10DB1200001D101203CE00020706430
:102EB000212186F84110FEF721FFB4848046F48476
:102EC00000F033F804BF306900281ABF2C460025F3
:102ED000002412E000228021304600F0C0FAE0B960
:102EE0003068002C12BF14F8011B35F8021BC1F327
:102EF00008014160F08C411EF1844346F08C00973C
:102F00000028E7D100224021304600F0A8FA20B97D
:102F1000202086F84100002005E0202086F84100AE
:102F2000032000E00220BDE8F681B068B0F5805FC4
:102F300070472DE9F84306460C4696F842002028D3
:102F400015461F4669D10CB1280001D1012065E06A
:102F500000F06AF80120306300217163FEF7CEFEB5
:102F6000B5858046F585FFF7E0FF04BF306900288E
:102F700007BF0025A14625464FF0000900203880F4
:102F8000089CF08D00283FD031680868C2060DD536
:102F9000002300930A6800924B680093009A3888D7
:102FA00020B10221716300F03BF834E0086882062A
:102FB0001BD52DB94868C0F3080029F8020B0EE0B4
:102FC000FFF7B3FF04D0002804BF3069002801D107
:102FD000486802E0486800F07F0005F8010B388877
:102FE000401C3880F18D481EF08514F1010FC8D0C7
:102FF000FEF784FEA0EB0800844201D3002CC0D170
:1030000000F00EF8032009E0B08DF18D401A3880F1
:10301000202286F84220002000E00220BDE8F28352
:10302000202086F84200704700207064222186F834
:103030004210704738B5044694F84200202809D160
:1030400009B1100001D1012032BD00F005F800F0F7
:1030500041FA07E0022032BD0120206300236363B0
:1030600020467047010018D1206B012814D100229E
:103070000092226800F013F80098226802F10C0315
:1030800053E8002F206800F10C0542F0100245E8DB
:1030900000200028F1D100E00121084632BD13686C
:1030A0000093526800927047216801F1140252E8BF
:1030B000001F206800F1140321F0400143E80010D4
:1030C000002870477CB5044621680B68CD684A69C2
:1030D00013F00F0007D1980661D5AA065FD52046E8
:1030E000BDE8764084E2D00702D415F4907F56D034
:1030F000D80705D5E90503D5606C40F00100606490
:10310000580705D5D10703D5606C40F00200606414
:10311000980705D5D10703D5606C40F004006064C2
:10312000180707D5A90601D4D00703D5616C41F073
:1031300008016164606C002830D0980604D5A906A7
:1031400044BF204600F054FA20684069616C0A07C9
:1031500001D440061DD5204600F023FA20684169BD
:10316000480611D5FFF7A0FFFCD1E06B60B10FF26C
:1031700075410165E06BFEF7B1FE00280ED0E06BF3
:10318000016DBDE87C4008472046BDE8764001F06F
:10319000E1BE204601F0DEFE0020606473BD206BBE
:1031A000012804F1410240F08D80D80600D5EE06DA
:1031B00040F18880002300930D6800954B680093D0
:1031C00000984969480641D5E16B0868406880B2BB
:1031D0000028E3D0A38D9842E0DAE085C869B0F515
:1031E000807F2DD0216801F10C0050E8001F23687A
:1031F00003F10C0521F4807145E800100028F1D19D
:1032000000F09CF8490800F11405490045E8001059
:103210000028F5D100F092F800F1140521F04001EA
:1032200045E800100028F5D12020507000212163CE
:1032300000F08AF800F08AF9FAD1E06BFEF712FE8E
:1032400002206063A18DE08D091A35E0A08DE18D2B
:10325000411AE08D00281CBF88B200286DD020687C
:1032600000F10C0353E8003F00F10C0623F49073C7
:1032700046E800300028F2D1206800F1140353E83A
:10328000003F5B0800F114065B0046E800300028B0
:10329000F2D12020507000222263206800F10C023D
:1032A00052E8002F00F10C0522F0100245E8002042
:1032B0000028F2D1022060632046BDE87C4089B23C
:1032C000FFF796B8180629D52E0627D5107821289D
:1032D00033D1A068B0F5805F04BF2069002808D111
:1032E000206A0288C2F308024A60206A811C2162B7
:1032F00004E0206A421C226200784860E08C401E94
:10330000E08480B2C8B92068C16821F08001C16042
:103310002068C16841F04001C16073BD58060CD5FA
:103320006B060AD5C86820F04000C86020211170E3
:103330002046BDE8764001F00EBE73BD206800F166
:10334000140151E8001F7047206800F10C0151E89A
:10335000001F00F10C03704710B500F022F812D4E2
:103360000021C18500F023F800F035F9FAD100F012
:1033700027F800F033F8202180F84210026B012A70
:1033800001D100F08CF900214163026B012A04D1C4
:10339000818DBDE81040FFF72BB8BDE8104001F06B
:1033A000DBBD0146886B09680A68D305704702686F
:1033B00002F10C0151E8002F036803F10C0470477F
:1033C000016801F1140252E8002F520801F11404BF
:1033D000520044E800210029F2D17047016801F150
:1033E000140252E8002F01F1140422F0400244E8D4
:1033F00000210029F2D17047806B01214163026BEB
:10340000012A18BF01F0A9BD818D4908FEF7F0BF60
:103410000000000038B5846B2068406904F1410564
:103420002978212906D1010604D50022E28420460C
:1034300000F0A3F8216848696978222906D140067E
:1034400004D50021E185204600F0ABF8606C40F027
:10345000100060642046BDE8324001F07BBD2DE9DC
:10346000FC41089C05460E4690461F4628680168A8
:103470003140B1420CBF01200020404528D114F159
:10348000010FF3D0FEF73AFCC01B844200D314B9FD
:103490000320BDE8F6812968C8684207E6D5802E7A
:1034A00018BF402EE2D008680207DFD50023009342
:1034B0000A680092496800910098284600F071F867
:1034C00005F1400008214160002202700120E0E780
:1034D0000020DEE77CB504461346A162A3850020E8
:1034E0006064222284F84220A048E26BD063E26B41
:1034F0009F481064E26B9F48D0640020E56B28650C
:103500000A462668E06B311DFEF77BFC0021009126
:1035100021680A68009249680091009A206930B1D8
:1035200000F01AF841F4807100F012F8F8D100F0C0
:103530001CF841F0010100F00BF8F8D100F015F88B
:1035400041F0400100F004F8F8D176BD21F01001FF
:1035500043E8001000287047216801F10C0050E892
:10356000001F226802F10C037047206800F114016B
:1035700051E8001F00F11403704710B500F009F87E
:1035800022F0C00200F029F8F8D1202180F8411083
:1035900010BD016801F10C0252E8002F01F10C048A
:1035A000704710B5FFF7F5FF22F4907200F015F8A0
:1035B000F8D1FFF705FF016B012906D1FFF7F7FEF0
:1035C00022F0100200F009F8F8D1202180F8421012
:1035D0000022026310BD22F4807244E80021002919
:1035E00070470000806B0021C185C18401F0B2BC2E
:1035F0001CB590F8421022294FD18168826AB1F53A
:10360000805F0AD1016969B903685968C1F308018B
:103610001180826A911C81620FE0002904BF016958
:10362000002902D10368596803E00168496801F084
:103630007F011170816A4A1C8262C18D491EC18559
:1036400089B241BB0168CA6822F02002CA600168E1
:10365000CA6822F48072CA6001684A69520852003E
:103660004A61202180F8421000224263016B012947
:103670000FD1026300F013F802681168CB0604D57D
:1036800000240094FFF70BFD0099818DFEF7B0FE3A
:1036900001E001F061FC002016BD022016BD0168AA
:1036A00001F10C0252E8002F01F10C0422F010028B
:1036B00044E800210029F2D1704770B50446226821
:1036C0001169E06821F4405101431161D3682A482F
:1036D000A168034020690B4361690343E0690B4320
:1036E0000343D3605169A06921F4407101435161E2
:1036F00022498A421CBF2248824202D1FEF79AFA2E
:1037000001E0FEF78FFA62682568E46964261921F2
:10371000B4F5004FA1FB000112D1D30F5200FFF707
:1037200065F900F02FF8F60032366420B6FBF0F0B1
:10373000420002F4F87202EB011200F0070010E000
:10374000930F9200FFF752F900F01CF83601323661
:103750006420B6FBF0F000F0F00202EB011200F082
:103760000F008018A86070BD0000000059330008E9
:10377000F933000815340008F369FFFF0010014019
:10378000001401406421B0FBF1F106FB1106704703
:1037900080B50B48016841F400710160026842F491
:1037A00080620260016841F4807101600320FEF7CD
:1037B000C4FC0F20FFF7CAF8FDF73EFF002002BD52
:1037C000003C0240002201F0CDBB430038B50400AC
:1037D00001D1012032BD00F065F818B900F0FEF803
:1037E000FDF798FF3DE090F83D10012901D0012040
:1037F0007047022180F83D100168CA6842F001025A
:10380000CA600068DFF88010884218BFB0F1804FAE
:1038100017D0DFF8781088421CBFDFF87420904280
:103820000FD0DFF8701088421CBFDFF86C20904288
:1038300007D0DFF8681088421CBFDFF86420904290
:1038400009D1816801F00701062908D0016841F01B
:103850000101016003E0026842F001020260002001
:10386000704702206870211D206800F0BBF801201D
:10387000A872A870E87028716871A871E871287240
:1038800068726870002032BD0000014000040040F2
:1038900000080040000C00400004014000400140CE
:1038A0000018004004F13C056878704770B5044684
:1038B0002068C5680669B10714D5AA0712D56FF04C
:1038C0000201016101222277806910F0030F204676
:1038D00002D001F060FB03E001F05EFB00F07BF83A
:1038E00000202077700715D5690713D520686FF081
:1038F0000402026102212177806910F4407F204692
:1039000002D001F048FB03E001F046FB00F063F851
:1039100000202077300715D5290713D520686FF0D0
:103920000802026104212177C06910F0030F2046CC
:1039300002D001F030FB03E001F02EFB00F04BF869
:1039400000202077F00615D5E90613D520686FF022
:103950001002026108212177C06910F4407F2046DF
:1039600002D001F018FB03E001F016FB00F033F881
:103970000020207706F0010105F00100014206D089
:1039800020686FF0010101612046FEF79AFF3006C2
:1039900008D5290606D522686FF080001061204600
:1039A00001F0FBFA700608D5690606D522686FF0AB
:1039B00040001061204601F0F1FAB0060AD5A906D0
:1039C00008D522686FF0200010612046BDE87040E5
:1039D00001F0E5BA70BD204601F0E2BA002129707D
:1039E00020467047F0B5284C0568284B284E294FD3
:1039F000DFF8A4C0A04218BFB0F1804F07D06045E7
:103A000018BFB84203D0B04218BF98420DD14A68DF
:103A100025F070051543A04218BFB0F1804F17D0B4
:103A200060451CBFB842B04212D098421CBF1B4A2E
:103A300090420DD01A4EB0421CBF1A4A904207D095
:103A4000194EB0421FBF194A9042194EB04203D1DD
:103A5000CA6825F4407515434A6925F08005154369
:103A60000560A0428D68C5620A68826212BF9842F2
:103A700009690163012242610169CA0703D501692D
:103A8000490849000161F0BD000001400004014007
:103A9000000C0040000800400004004000400140CD
:103AA000004401400048014000180040001C004054
:103AB0000020004070B500F13C031A78012A01D1C2
:103AC000022070BD01221A7002245C7005686E68C5
:103AD000AC680A6826F0700616436E6002681448E7
:103AE000824218BFB2F1804F11D0104882421CBFF1
:103AF000104DAA420BD00C4882421CBF0E4DAA4268
:103B000005D0084882421CBF0C4DAA4204D1486827
:103B100024F080040443946001215970002018703F
:103B200070BD000000400140000C00400004004057
:103B3000000001400008004000040140001800405F
:103B40006A4800214FF6FF7281768283704770B514
:103B50000246674B654C09E012F8015B4540A576CB
:103B6000A57E33F8156086EA1026A6830D46691EE9
:103B7000ADB2A08B002DEFD170BD70B504460D46DF
:103B80006019801E4178067846EA0126FFF7D8FFC3
:103B9000A91E89B22046FFF7DAFF864201D1002034
:103BA00070BD012070BD5149486070470A4601460A
:103BB0004E4840686423FFF76AB91CB54B4800F1D2
:103BC000180300F108016424406800940F22FFF7F5
:103BD000B0F916BD70B504466078032826D100F010
:103BE00039F806212046FFF7B2FF00F02CF8062135
:103BF000FFF7DCFF060020D100F021F806001CD101
:103C0000FFF7DBFF060018D12078297A88420DD112
:103C1000298B05F10800FFF7B0FF38B96078697AA1
:103C2000A27988421CBFA87A824201D0012604E012
:103C3000A06805F10B0101F077F9304670BD022153
:103C400004F10C00B2E7A88B20732046A98B090A67
:103C500061737047254D0020A8764FF6FF72AA8346
:103C6000704770B50546214C687810283AD100207D
:103C7000A0764FF6FF72A28307212846FFF767FF61
:103C8000A979A868FFF763FFA08B28732846A18B4A
:103C9000090A69730721FFF789FF060010D1A97986
:103CA000A868FFF783FF06000AD1022105F10C0086
:103CB000FFF77CFF060003D1FFF77FFF060001D06E
:103CC000304670BD208B08280CD1082104F1080073
:103CD000FFF753FF30B90622294604F1080001F02E
:103CE00061F900B101262670EAE700005852002071
:103CF000E889000870B55C4D287003206870E97091
:103D00001446180A0A0A28715900AA706B71A97121
:103D10002846FFF75FFF060004D1AA79A96820466C
:103D200001F002F9304670BD38B5504C20701020BB
:103D30006070E170180A0D0A20715900A570A17118
:103D40006371A2602046BDE83240FFF78ABF484A4F
:103D50009182012344490870102048708B70002024
:103D6000C870087102230120487114328B718A6077
:103D700013E00121EBE73E4B99619A8301223A4916
:103D8000087010208A70CA70487000220A710320DF
:103D90004871062218338A718B600846FFF761BFAD
:103DA0002DE9F8431B21324CA185092018212084DC
:103DB00021860F209621E0852185618503204FF41F
:103DC0007A716086A18640F6B8364FF47A4700F0E3
:103DD00038F8054640F2D1780120FFF7CAFF0220EB
:103DE000FFF7C7FF0320FFF7C4FF8146012001F062
:103DF000E9F8FDF783FF401B404502D2B9F1000FFF
:103E0000EAD11120208432211B206184A184E18425
:103E100021856185A0850F211820E1852086032159
:103E20004FF4C8706186A08600F00BF804460120AC
:103E300001F0C8F8FDF762FF001B4045F7D3BDE86D
:103E4000F183E68627876787FDF758BF094B0A4647
:103E50009942B8BF1A4604DBB1F5806FA8BF40F2A3
:103E6000FF32032187E7000098520020A85200206B
:103E70007C45002001FCFFFF80B5DFF81C010168D4
:103E800001F0D2FB012803D0BDE8014001F0FABCEB
:103E900001BDEFF3058000B16EE0DFF800110868A6
:103EA00010B901220A6070474FF0FF3070470000E0
:103EB00080B5EFF3058000B10FE0DFF8E0000168A6
:103EC000012909D1DFF8D81000220A70022303600B
:103ED00001F0A1F9002002BD02E06FF0050002BD73
:103EE0004FF0FF3002BDF8B584B000230393EFF329
:103EF0000583002B3DD103003BD0802518260024EC
:103F00005AB3136803B11C4693691BB11E0004D059
:103F1000392E02D21379DF0701D500202AE0536938
:103F200003B19D08D2F80CC0976887B1BCF15C0F53
:103F30001FD31269002A18BF002B1AD001920B461A
:103F4000029700962A46214601F050F810E0BCF195
:103F5000000F04BF1269002A0BD103AB0193009636
:103F60000B46AAB2214601F070F8012801D00020CA
:103F70000390039805B0F0BD6FF00500704710B5D1
:103F8000EFF3058111B16FF0050403E0002408B1DF
:103F900001F027F9204610BD10E000E0C4520020D7
:103FA0001FED00E0034B036003F15C00086080211B
:103FB00011607047784800202DE9F843040016D0BE
:103FC0002078DFF80063C10713D5B06800F00C005B
:103FD000042807D0B06800F00C0008283DD17068B4
:103FE00041023AD53068810303D56068002800F0AB
:103FF00063812078B44F810719D5B06810F00C0F99
:1040000007D0B06800F00C0008285BD1706841024E
:1040100058D43068810703D5E068012840F04C810E
:104020003168206921F0F80141EAC001316021784E
:10403000080779D56069A549002868D001220A607F
:10404000FDF75CFE0546706F81076DD4FDF756FEE7
:10405000401B0228F7D9032031E16068B0F5803FAA
:1040600004D1306840F48030306011E0B0F5A02F0A
:10407000306806D140F480203060316841F48031EE
:1040800005E020F480303060316821F48021316017
:10409000606858B1FDF732FE054630688103A8D448
:1040A000FDF72CFE401B6528F7D3D4E7FDF726FE6D
:1040B0000546306881039CD5FDF720FE401B65282E
:1040C000F7D3C8E7E068A8B101213960FDF716FE13
:1040D00005463068810705D4FDF710FE401B022815
:1040E000F7D9B8E73068216920F0F80040EAC1004C
:1040F00030609CE73860FDF701FE054631688807AF
:1041000095D5FDF7FBFD401B0228F7D9A3E7086012
:10411000FDF7F4FD0546706F810705D5FDF7EEFD4F
:10412000401B0228F7D996E7207841075FD5306C0D
:104130000025C1000AD400950125316C41F0805161
:104140003164306C00F0805000900098DFF880817E
:10415000D8F80000C10513D4D8F8000040F48070EE
:10416000C8F80000FDF7CAFD8146D8F80000C10577
:1041700006D4FDF7C3FDA0EB09000228F5D96AE7D4
:10418000A068012805D00528306F06D140F0040052
:104190003067306F40F0010005E0400840003067B4
:1041A000306F20F00400306741F28938A06860B1B8
:1041B000FDF7A4FD8146306F810713D4FDF79EFD06
:1041C000A0EB09004045F6D345E7FDF797FD814692
:1041D000306F810706D5FDF791FDA0EB0900404542
:1041E000F6D338E71DB1306C20F080503064A06900
:1041F000002863D0B16801F00C0108293AD00228E8
:104200002AD100203866FDF779FD05463068810126
:1042100005D5FDF773FD401B0228F7D91BE7E069C0
:10422000216A626A0843A16A490840EA8210491E6D
:1042300040EA0140E16A40EA0160706001203866AE
:10424000FDF75CFD04463068810137D4FDF756FD6B
:10425000001B0228F7D9FEE600203866FDF74EFD68
:1042600004463068810129D5FDF748FD001B02286E
:10427000F7D9F0E601281FD07068E26900F48001E8
:10428000914202BF00F03F01226A914201BF47F60E
:10429000C0710140626AB1EB821F0DD1A26A52085F
:1042A00000F44031521EB1EB024F02BF00F07060CB
:1042B000E16AB0EB016F01D0012000E00020BDE811
:1042C000F28300BF0038024000004742800E4742A0
:1042D000007000400549086070470A4601460348DF
:1042E00000684FF47A73FEF7D2BD0000C852002078
:1042F000E0B5012802D10A2228A104E0022804D155
:104300005FF00A0228A100F037F80A2130E000002F
:1043100080B58AB0009201914FEA000225A102A85F
:1043200001F00CFB02A800F00BFEC1B202A8FFF7DF
:10433000D4FF0BB000BD0000E0B5012802D1072278
:1043400021A104E0022804D15FF0070220A100F0BF
:1043500013F80CE0E0B5012802D107221EA104E009
:10436000022804D15FF007021DA100F005F8072123
:104370006846FFF7B2FF07BD684600F0D5BD0000F4
:10438000E0B5012802D1072217A104E0022804D1D8
:104390005FF0070216A1FFF7EFFFE8E74E31204F6D
:1043A00020523130310A00004E32204F205231303D
:1043B000310A00004E257520702564207625752071
:1043C0006125750A000000004E31204F204C0A0084
:1043D0004E32204F204C0A004E31204F20550A000B
:1043E0004E32204F20550A004E31204F20720A00D5
:1043F0004E32204F20720A0010B5384C04F11800DC
:1044000001F0BCFA04F11400BDE8104001F022BB39
:1044100010B5324C04F1180001F0F8FA1E2000F03B
:10442000D1FD04F1180001F0ADFA1E2000F0CAFD24
:10443000062104F1180001F0B8FA00F01AF801F0B2
:10444000F5FA00F016F801F0F5FA00F012F801F0B4
:10445000F7FA00F00EF801F0F7FA00F00AF801F0B0
:10446000ABFA1F4801F05CFBA0804FF4FA7020818A
:1044700010BD002104F118007047184800210161A7
:104480007047F8B5154E06F1180001F0AEFAB7887E
:10449000C71B77803FB2380048BF4042022814DB78
:1044A000306901F03FFB0D4604460D2197FBF1F00A
:1044B00001F05CFB0B4A0C4B01F06AFB22462B46D9
:1044C00001F038FC01F0F4FC306196ED040ABDEE19
:1044D000C00A10EE100A00B2F2BD000030520020F7
:1044E00000000308AFB5F7A92A34603F10B5B44CFB
:1044F00084ED000B84ED021BD4E90001D4E9022312
:1045000001F00AFDC4E9040110BD9C4A10835183E7
:1045100070479A4A1082518270470000B0EE445AA8
:10452000F0EE645AB0EE434AF0EE634AB0EE423A1F
:10453000F0EE623AB0EE412AF0EE612AB0EE401A97
:10454000F0EE601A9FED8B0B9E4801F009BE53EC14
:10455000102B83F000439C48C0E9022380ED000B40
:1045600070478649888370478449888270478349A9
:10457000A1F840007047000080B59FED811B9FEDC2
:10458000820BFFF7B3FF4FF461710020FFF7BDFF0F
:104590004FF4B4710020FFF7BCFF9FED7D4B9FED02
:1045A0007E3B9FED7F2B9FED801B9FED810BFFF7E7
:1045B000B5FF72480121002280F848108282A0F8DD
:1045C0004020828301BD70B56C4C2DED068BB4F993
:1045D0001C00218BB4F91E208842B8BF08B2618B41
:1045E0008142B8BF08B2A083B4F91C00811A002927
:1045F00003DDB4F920108A1804E046BFB4F9221094
:10460000521A0246E28304F51E7501F0AFFA41EC3E
:10461000180BB4F9140001F0A9FA41EC100B53EC9B
:10462000102B6548654901F0B3FA41EC190BB0EE67
:10463000490AF0EE690A01F0DAFEB0EE40AAF0EEA7
:1046400060AAB0EE490AF0EE690A01F0CAFEB0EEC7
:10465000409AF0EE609A53EC1A2B51EC190B01F0D2
:1046600069FB00F0B5F8C5E9000153EC192B51ECDA
:104670001A0B01F0C3FE00F0ABF804F1480641EC60
:10468000100B307885ED020B85ED040BD0B1B4F939
:10469000420001F06BFA41EC110BB4F94000B0EEAE
:1046A000418AF0EE618A01F061FA41EC100BB0EE44
:1046B000481AF0EE681A04F1500001F0BAFD96EDC8
:1046C0001A8B09E004F1500001F070FEB4F94000CB
:1046D00001F04CFA41EC180BD4E9780100F078F8BD
:1046E00081F00041D5E9022341EC190B85ED069BD1
:1046F00085ED088B85ED0A8B51EC180B01F01AFB48
:1047000041EC1A0BD5E9040153EC182B01F076FEAD
:10471000D5E9002341EC180B51EC190B01F00AFB11
:1047200041EC190B85ED0C9B85ED0EAB53EC182B72
:104730000020264901F02CFAC5E9100151EC190BB3
:1047400001F0CEFE01B20120FFF780FBD5E90E019A
:1047500001F0C6FE01B20220FFF778FBD5E9100197
:1047600001F0BEFEBDEC068B01B2BDE87040032037
:10477000FFF76CBBFCA9F1D24D62503FB845002059
:1047800000000000005074400000000000406F4036
:104790000000000000C072400000000000000000A7
:1047A0007B14AE47E17A743F0000000000002E4009
:1047B000666666666666FA3F399D52A246DF913F9D
:1047C0008847002008460020584600200000F0BF1F
:1047D00053EC182B01F0DCB9FFF7D1BB2DE9F843FE
:1047E000DFF890462078002840F09180DFF8887646
:1047F000DFF88866787B002804BF7078012842F2D1
:104800000F7805D16FF013030A224146FFF780FDB0
:10481000DFF874562878C10713D5787B002804BFC9
:10482000707801280DD1FFF787FD0120FFF7A8FD63
:104830000120787310230A224146FFF769FD012009
:1048400038736FF06309787C80B9797B70780143A5
:104850000ED100F05EF82878810707D40220FFF718
:104860006BFD0220FFF78CFD01207070787C50B941
:10487000787B012807D12888C0F3400018B1307830
:1048800008B900F046F82878317882070CD4787C93
:10489000002804BF787B012806D129B9642300F0E1
:1048A00039F80120307001E001290ED12888C0F3C9
:1048B0004000E8B10220FFF73FFD0220FFF760FD56
:1048C00000F027F80220307001E0022910D128788A
:1048D00081070DD40220FFF72FFD0220FFF750FDC6
:1048E000462300F017F801207874387400203070E7
:1048F000797C012904BF787B012808D1E9884FF62B
:10490000FC70014041F07401E98001212170BDE893
:10491000F1834B461E2241460220FFF7F9BC2DE9E8
:10492000F84FDFF85045DFF858552178012903D0BA
:10493000BDE8F18F00F096FAB5F928109729ACBFC1
:104940000120002011F1010F0CBF012100210843BB
:10495000F0D10120607000F085FA00F080FA40F29A
:10496000C710FFF704FE00F06FFADFF8186540F299
:10497000B91801E000F073FAB4F94210414502DAC7
:1049800030780028F6D0B5F92A1040F61752914237
:1049900004DB307810B900F062FAF4E700F058FA5E
:1049A000DFF8E474F9884FF6DF700140F98002E027
:1049B0007820FFF7D6FDB5F92A1040F6AF329142C4
:1049C00002DB30780028F3D000F050FAB420FFF773
:1049D000CBFD00F02DFA00F085FA00F079FA00F036
:1049E00020FA0A20FFF7C0FD00F039FA01E000F0DC
:1049F0002BFAB5F92A10B1F53E6F02DA30780028AB
:104A0000F5D000F072FA40F6AD0901E000F027FAA7
:104A1000B5F92810494502DB30780028F6D000F0BF
:104A200017FA00F00BFA02DB30780028F7D000F01C
:104A300059FA00F03BFA00F05BFAF88840F02000E9
:104A4000F88040F2614A00F0F3F900F04EFA01E01C
:104A500000F0FEF9B5F92810514502DB3078002846
:104A6000F6D04FF49670FFF77FFD02E05020FFF77D
:104A700078FDB5F92A1040F61932914202DB307800
:104A80000028F3D000F031FA40F2533B01E0FFF789
:104A90006BFDB5F92810594502DB30780028F6D0B7
:104AA00000F020FA00F0FAF900F008FA00F01DFA20
:104AB00000F0CEF901E0FFF757FDB5F9281040F2FC
:104AC0000922914202DB30780028F4D0FA20FFF767
:104AD0004BFD00F0C4F902E0FA20FFF745FDB5F9FF
:104AE0002A1040F69902914202DB30780028F3D078
:104AF00000F0A1F94FF4AF70FFF733FD01E000F0D3
:104B00009AF9B5F9281040F25462914202DA3078ED
:104B10000028F4D000F0A3F901E000F08CF9B5F919
:104B20002810B1F52A6F02DA30780028F5D000F0AD
:104B30008FF901E000F07FF9B5F9281040F69442B2
:104B4000914202DA30780028F4D05020FFF709FDB6
:104B500001E000F087F9B5F92A1040F2B3729142F2
:104B600002DB30780028F4D0B420FFF7FDFC00F021
:104B70007DF97820FFF7F5FC00F05AF900F0B2F962
:104B800000F0A6F900F04DF90A20FFF7EDFC00F067
:104B900066F901E000F058F9B5F92A10B1F5FF6F98
:104BA00002DA30780028F5D000F09FF901E000F03B
:104BB00056F9B5F92810494502DB30780028F6D0BF
:104BC00000F046F900F03AF902DB30780028F7D01F
:104BD00000F088F900F06AF900F08AF9F88840F0EE
:104BE0002000F88000F024F900F07FF901E000F0E7
:104BF0002FF9B5F92810514502DB30780028F6D09E
:104C00004FF49670FFF7B0FC02E05020FFF7A9FCCC
:104C1000B5F92A1040F22772914202DB3078002861
:104C2000F3D00020FFF7A0FCB5F92810594502DBAE
:104C300030780028F6D000F055F900F02FF900F098
:104C40003DF900F052F902E09620FFF78AFCB5F931
:104C5000281040F29F22914202DB30780028F3D0E6
:104C60005A20FFF781FCC82001E04FF49670FFF74F
:104C700078FCB5F92A1040F65432914202DA3078C5
:104C80000028F2D06FF4E370FFF771FC01E000F050
:104C9000E2F8B4F9421011F5DC7F02DB307800282D
:104CA000F5D0B5F92A10B1F57A7F04DA307810B969
:104CB00000F0D1F8F5E740F2C710FFF758FC01E02B
:104CC00000F0C9F8B4F94210414502DA3078002802
:104CD000F6D0B5F92A10B1F5965F04DA307810B93C
:104CE00000F0B9F8F5E700F000F94FF4C87001E002
:104CF0004FF49670FFF735FCB4F94210414502DAE3
:104D000030780028F4D04FF4C860FFF765FD00F05C
:104D1000ECF840F2BD10FFF72AFC00F09CF8B5F962
:104D2000281040F63D22914202DB30780028F4D072
:104D300000F095F840F20910FFF716FC01E000F0D2
:104D40008EF8B5F92A1040F64952914202DB3078CC
:104D50000028F4D000F07CF8B5F92A1040F6B342F0
:104D6000914202DB30780028F4D000F0BEF800F069
:104D7000B9F842F20F746FF0090300F0C1F8F88837
:104D800040F04000F8804FF49660FFF725FD322098
:104D9000FFF7E7FB3888C0F3C00010B13078002877
:104DA000F5D000F09FF800F043F8F9884FF6BF7097
:104DB0000140F980462300F0A3F85A20FFF7D4FB06
:104DC00000F04DF8B5F92A1040F6D272914202DA9D
:104DD00030780028F4D000F088F801E000F03FF8C7
:104DE000B5F9281040F29112914202DB3078002888
:104DF000F4D000F077F8F88840F04000F8801423F1
:104E000000F07EF840F6C410FFF7E6FC02232246CD
:104E100021460120FFF77CFA4FF4FA60FFF7AFF864
:104E2000FEE7F88840F02000F8804FF4FA60D3E401
:104E30004FF47A70D0E4AF20FFF796BBB5F9281095
:104E400040F25B52914270479FED100BFFF77FBB22
:104E50006420FFF786BB4FF49670FFF782BBC82033
:104E6000FFF77FBB4FF48770FFF77EBB9FED090B09
:104E7000FFF76DBBB845002078520020B54E0020EA
:104E800004520020B74E0020B8520020000000005D
:104E900000C062400000000000000000F9884FF6EA
:104EA000DF700140F9804FF47A7095E4F9884FF68D
:104EB000DF700140F9804FF4C8608DE4F9884FF647
:104EC000FE70014041F01001F9804FF47A7083E4E4
:104ED000F9884FF6EB70014041F00301F9804FF47F
:104EE000FA7079E40020FFF73CBB0020FFF73CBBE1
:104EF000F988022060F34201F9804FF4FA706BE404
:104F0000282221460220FFF703BA00000248416828
:104F100002788A18426070470C0000207047000039
:104F20000022FDF7EBBD00004AB1000011F8013B83
:104F3000521E00F8013B1CBF11F8013BF8E7704717
:104F400000F1010310F8011B11B110F8011BFBE780
:104F5000C01A7047704770477047704762F30F225E
:104F600062F31F4200B500BF130096469446103905
:104F700028BFA0E80C50FAD85FEA417C28BF0CC0DB
:104F800048BF40F8042BC90728BF20F8022B48BFB0
:104F900000F8012B00BD704770477047704770479D
:104FA0007047000003000020521E22BF13F8010BBF
:104FB00011F801CBB0EB0C00F6D0521C08BF104624
:104FC0007047000038B50446FCF798FE14F1010F55
:104FD000054602D0044801786418FCF78FFE401B98
:104FE000A042FAD331BD00BF0C000020F0B585B05F
:104FF00050260B9D25B986F3118800F03EFAFEE796
:105000000C9C24B986F3118800F037FAFEE75C2780
:105010000097009F5C2F04D086F3118800F02DFAD2
:10502000FEE7009E25630026022584F8595004AF50
:105030000A9D039602940197009500F034F82046EB
:1050400000F077F8049805B0F0BD2DE9F843064666
:10505000174684B088469946B80001F05FFA05000B
:105060001CD05C2001F05AFA040014D00020256303
:1050700084F85900039002940D980C9901900091C6
:105080004B463A464146304600F00DF8204600F0C7
:1050900050F8012004E0284601F0CDFA4FF0FF302F
:1050A00005B0BDE8F0832DE9F0470A9F81460C4624
:1050B0001546386B9A46A522A900FFF74FFF396BBA
:1050C00001EB8502101FC0084FEAC00808F0070076
:1050D00007F1340554B10021625C6A54605C10B180
:1050E000491C1029F8D30020E87300E02870089EBE
:1050F000099C372E88BF3726FE62AE61E861C6F193
:105100003806381D01F0F7FA07F1180001F0F3FA3C
:105110003F61BE617F620020286287F858005246D6
:105120004946404600F010FB386004B12760BDE8F6
:10513000F0872DE9F04100F06BF8DFF80455DFF857
:105140006885E86C401CE8641426A86A28BBAC6239
:10515000E86C012829D1002706FB07F0404401F044
:10516000BDFA7F1C382FF7D305F1740001F0B6FAB1
:1051700005F18807384601F0B1FA284601F0AEFA89
:1051800005F1140001F0AAFA05F1380001F0A6FAC1
:1051900005F17400E8622F6307E0A86D28B9E06AA2
:1051A000A96ACA6A904228BFAC62A86E401CA86671
:1051B0006064E06A696D814238BF68654643211DBD
:1051C00008EB060001F09AFA00F04BFBA86D30B135
:1051D00000F0A1F903D200F076FA00F04EF9BDE834
:1051E000F08180B588B1DFF85824116F21B100F04B
:1051F0002BF900F042F9FEE7116F491C11670021FD
:1052000000F06CFA00F044F808B900F031F901BD83
:10521000044600F00DBB80B586B0002105910491D5
:1052200003AA04A905A8FEF7BDFE059804990290FB
:105230000022009201910023039A0FF204510FF211
:105240006130FFF7D3FE98B101F092FA50210128A6
:1052500010D181F3118800F010F9DFF8D0044FF07D
:10526000FF31C166012282650021016500F08EFADE
:1052700007B000BD10F1010FFAD181F3118800F0E1
:10528000FCF8FEE7DFF8A404016F491C01677047D2
:1052900070B5DFF8AC63306F0024002520B900F052
:1052A00042F800F0EAF8FEE700F0C2FA306F401E64
:1052B0003067306F002835D1F06CD0B932E0F0683B
:1052C000C46800F034F800F0BDF9E06A716DDFF8F1
:1052D0006024814238BF706514235843211D104457
:1052E00001F00CFAE06AB16ACA6A904224BF012157
:1052F000316630680028E2D10CB100F088F9F46D15
:105300003CB100F01CF808B101203066641EF8D1F1
:10531000F565306E30B1DFF81C144FF08050012578
:1053200000F0AAF8C8E1502181F31188704704F118
:10533000180001F009BADFF8F403006D70472DE999
:10534000F843DFF8FC72386F0026002850D13C6D1E
:10535000641C3C6510D1F86A006820B1FFF7E3FFD8
:1053600000F08BF8FEE7F86A396BF9623863786E03
:10537000401C786600F04BF9F86EDFF8B493844275
:105380004FF0140827D319E0281D01F0DDF9A86AB1
:1053900018B105F1180001F0D7F9E86A796D81427A
:1053A00038BF786508FB00F0291D484401F0A6F9D4
:1053B000E86AB96ACA6A904228BF0126F86A00689A
:1053C00030B1F86AC168CD6868688442DCD201E017
:1053D0004FF0FF30F866B86AC06A08FB00F059F871
:1053E0000010386E022928BF012620B1012602E0F4
:1053F000F86D401CF86563E110B5DFF84422106FCA
:1054000010B10121116610BD1066516DDFF8203317
:1054100000E0491E14244C43185930B90029F8D132
:1054200000F012F800F029F8FEE7181900F108045E
:1054300043685B684360A34204BF5B6843604068A5
:10544000C3689362516510BD502080F31188704786
:1054500010B50C4620B9FFF7F7FF00F00EF8FEE795
:1054600000F028F801F057F92046BDE8104009E0A7
:10547000DFF8C0124FF080500860BFF34F8FBFF3CA
:105480006F8F7047012100F029B938B50D461446D9
:1054900020B9FFF7D9FFFFF7F0FFFEE700F00AF8A9
:1054A00001F02CF90CB14FF0FF3521462846BDE83C
:1054B000344013E1DFF87422936A03F11801704756
:1054C00038B5C068C46824B9FFF7BEFFFFF7D5FF41
:1054D000FEE7FFF72CFFDFF85452286F40B900F0C9
:1054E000B1F800F012F838BF6A6500F0F2F802E097
:1054F00004F11801284601F001F900F00CF802D27D
:105500000120286632BD002032BDE26A686DDFF8F6
:10551000203290427047A86AC16AE06A81427047AF
:10552000DFF808124A6E0260096D41607047F8B5F5
:1055300004460D46502024B980F31188FFF79DFFE3
:10554000FEE725B980F31188FFF797FFFEE700F02B
:105550006FF9DFF8D801016D62682E688B1A16F1B9
:10556000010F0ED0476ED4F800C0674501D09142BC
:105570000BD2B34207D2F31A2B60416E2160006D4B
:105580006060002402E000202860012400F069F936
:105590002046F2BDDFF89411012008667047000034
:1055A00070B5414CDFF8845111E000F041F9286AF0
:1055B000C668301D01F0C8F8E86C401EE864686BEE
:1055C000401E686300F04DF9304600F009F8686B42
:1055D0000028EAD121680229F9D3FFF749FFF6E74D
:1055E00010B5044694F8590040B9206B01F023F837
:1055F0002046BDE8104001F01EB810BD0128F7D0CC
:105600000228FAD0FFF720FFFFF737FFFEE70C492B
:10561000C86A006810B94FF0FF3203E0C86AC26878
:10562000D0684268CA667047DFF80011886D08B913
:1056300001207047086F08B90220704700207047AA
:10564000B84E0020201D01F07FB838B50446002177
:1056500044B3DFF8D850A86A5022844204D082F3C1
:105660001188FFF70AFFFEE7206D20B982F3118849
:10567000FFF703FFFEE7E26AE36C401E9A422065F3
:1056800010D078B9FFF7DEFFE26CDFF8A430E262F9
:10569000C2F13800A061696D914238BF6A6500F0BF
:1056A00005F80121084632BDC03C002014204243C9
:1056B000211D981801F022B800F0D3F8284670BDDB
:1056C0003046BDE8F2831B4A4FF0805111607047AD
:1056D000000014204243211D98187047F8B5134D5F
:1056E0002F6D0C46A96A0646081D01F02DF816F12B
:1056F000010F05D124B1A86A011D05F138001BE096
:10570000A86AF6194660BE42A86A05D2011D286B38
:10571000BDE8F44000F0FFBF011DE86A00F0FBFFA8
:10572000E86E864238BFEE66F1BD0000B84E00203C
:10573000C03C002004ED00E0BDE8F44000F0DEBF16
:1057400049444C4500000000490810B54900A0F14B
:1057500020034FF0807499611A60DC616FF00202DF
:105760000FF20D01596140F8242D203810BD0000C2
:105770005B494A68502012F1010F80F31188BFF392
:105780004F8FBFF36F8F00D0FEE7FEE77CB5554A21
:10579000554B10685021984202D100F0B3F8FEE753
:1057A0001068524B984202D100F0ACF8FEE7504B23
:1057B0001C780194FF251D7007251E78484C8DF834
:1057C00000609DF80000A56000F05000207006E029
:1057D000401EA0609DF8000040008DF80000A06809
:1057E0009DF800502E06F3D4C0F10705042D02D019
:1057F00000F088F8FEE7000200F4E060A060019885
:105800001870116A41F470011162106A40F0704022
:10581000106200F07FF80020606001F0A3F93548C5
:10582000016841F04041016001F08CF9002076BD33
:10583000502080F31188BFF34F8FBFF36F8F28493B
:105840004A68521C012A4A600AD12B490A68130689
:1058500006D080F31188BFF34F8FBFF36F8FFEE741
:1058600070471F49486838B9502080F31188BFF34A
:105870004F8FBFF36F8FFEE7401E486008BF80F375
:105880001188704780B5502080F31188BFF34F8F87
:10589000BFF36F8FFFF753FD18B117494FF08050DA
:1058A0000860002282F3118801BD000010B5EFF3FB
:1058B0000580502110280A4A07D3104B185C147831
:1058C000A04202D200F01EF8FEE790680C4A13686E
:1058D00003F4E063984202D200F014F8FEE710BD32
:1058E0000000002000ED00E071C20F4170C20F41C6
:1058F00000E400E034EF00E004ED00E0F0E300E05D
:105900000CED00E081F31188BFF34F8FBFF36F8F71
:10591000704700000748084B0021016081604FF488
:105920007A721968B1FBF2F2521E426007210160DF
:10593000704700BF10E000E0180000200CB430B544
:1059400083B00A4606A902910446002501940095F9
:1059500002AB01A9084878441E3001F011F9019A00
:10596000157000284EBF04460198041B204603B062
:1059700030BC5DF80CFB00BF7BD1FFFF00BF68218E
:105980000170704710B50446012100F049F800216C
:10599000204600F011F80021204600F013F82046C0
:1059A000BDE81040002100F035B880B500F010F8D7
:1059B0001A2100F07BF801BD80B500F023F8042225
:1059C0001B21F6E780B500F01DF804221C21F0E74A
:1059D0000091032300780222704700F043F86178B9
:1059E000A07840EA012000B232BD38B500F002F8DC
:1059F0004721F2E70446164805880095631C207885
:105A0000022270470091022300787047007801233A
:105A1000072202E00B46007806226B2100F030B826
:105A200080B5FFF7D5FF6B21FFF7C3BF0B460078AA
:105A3000052202E00B46007804226C2100F020B819
:105A40000B4600780222F8E70B4600780122F4E7C3
:105A50009C000020704780B500931346012200F09F
:105A600001F802BD1FB5019200930A46069C0294FC
:105A7000410001232848FAF7F7FC40B204B010BDFA
:105A8000F8B500F020F801239DF8000003FA06F6AF
:105A9000002F14BF064320EA06068DF80060294651
:105AA0009DF80020204600F022F8F2BDF8B500F085
:105AB0000AF830B9012106989DF8002000F00BF893
:105AC000EBE70020F2BD1646144A1F461388044631
:105AD0000D466A46BFE7F61B01FA07F7761C7F1EE4
